{
  "_format": "hh-sol-artifact-1",
  "contractName": "SavingCore",
  "sourceName": "contracts/SavingCore.sol",
  "abi": [
    {
      "inputs": [
        {
          "internalType": "address",
          "name": "_vaultManager",
          "type": "address"
        },
        {
          "internalType": "address",
          "name": "_usdc",
          "type": "address"
        },
        {
          "internalType": "string",
          "name": "baseURI_",
          "type": "string"
        },
        {
          "internalType": "address",
          "name": "_admin",
          "type": "address"
        }
      ],
      "stateMutability": "nonpayable",
      "type": "constructor"
    },
    {
      "anonymous": false,
      "inputs": [
        {
          "indexed": true,
          "internalType": "address",
          "name": "owner",
          "type": "address"
        },
        {
          "indexed": true,
          "internalType": "address",
          "name": "approved",
          "type": "address"
        },
        {
          "indexed": true,
          "internalType": "uint256",
          "name": "tokenId",
          "type": "uint256"
        }
      ],
      "name": "Approval",
      "type": "event"
    },
    {
      "anonymous": false,
      "inputs": [
        {
          "indexed": true,
          "internalType": "address",
          "name": "owner",
          "type": "address"
        },
        {
          "indexed": true,
          "internalType": "address",
          "name": "operator",
          "type": "address"
        },
        {
          "indexed": false,
          "internalType": "bool",
          "name": "approved",
          "type": "bool"
        }
      ],
      "name": "ApprovalForAll",
      "type": "event"
    },
    {
      "anonymous": false,
      "inputs": [
        {
          "indexed": false,
          "internalType": "string",
          "name": "baseURI",
          "type": "string"
        }
      ],
      "name": "BaseURISet",
      "type": "event"
    },
    {
      "anonymous": false,
      "inputs": [
        {
          "indexed": true,
          "internalType": "uint256",
          "name": "depositId",
          "type": "uint256"
        },
        {
          "indexed": true,
          "internalType": "address",
          "name": "owner",
          "type": "address"
        },
        {
          "indexed": false,
          "internalType": "uint256",
          "name": "planId",
          "type": "uint256"
        },
        {
          "indexed": false,
          "internalType": "uint256",
          "name": "principal",
          "type": "uint256"
        },
        {
          "indexed": false,
          "internalType": "uint256",
          "name": "maturityAt",
          "type": "uint256"
        },
        {
          "indexed": false,
          "internalType": "uint256",
          "name": "aprBpsAtOpen",
          "type": "uint256"
        },
        {
          "indexed": false,
          "internalType": "uint256",
          "name": "penaltyBpsAtOpen",
          "type": "uint256"
        }
      ],
      "name": "DepositOpened",
      "type": "event"
    },
    {
      "anonymous": false,
      "inputs": [
        {
          "indexed": true,
          "internalType": "address",
          "name": "previousOwner",
          "type": "address"
        },
        {
          "indexed": true,
          "internalType": "address",
          "name": "newOwner",
          "type": "address"
        }
      ],
      "name": "OwnershipTransferred",
      "type": "event"
    },
    {
      "anonymous": false,
      "inputs": [
        {
          "indexed": false,
          "internalType": "address",
          "name": "account",
          "type": "address"
        }
      ],
      "name": "Paused",
      "type": "event"
    },
    {
      "anonymous": false,
      "inputs": [
        {
          "indexed": true,
          "internalType": "uint256",
          "name": "planId",
          "type": "uint256"
        },
        {
          "indexed": false,
          "internalType": "uint256",
          "name": "tenorDays",
          "type": "uint256"
        },
        {
          "indexed": false,
          "internalType": "uint256",
          "name": "aprBps",
          "type": "uint256"
        }
      ],
      "name": "PlanCreated",
      "type": "event"
    },
    {
      "anonymous": false,
      "inputs": [
        {
          "indexed": true,
          "internalType": "uint256",
          "name": "planId",
          "type": "uint256"
        }
      ],
      "name": "PlanDisabled",
      "type": "event"
    },
    {
      "anonymous": false,
      "inputs": [
        {
          "indexed": true,
          "internalType": "uint256",
          "name": "planId",
          "type": "uint256"
        }
      ],
      "name": "PlanEnabled",
      "type": "event"
    },
    {
      "anonymous": false,
      "inputs": [
        {
          "indexed": true,
          "internalType": "uint256",
          "name": "planId",
          "type": "uint256"
        },
        {
          "indexed": false,
          "internalType": "uint256",
          "name": "newAprBps",
          "type": "uint256"
        }
      ],
      "name": "PlanUpdated",
      "type": "event"
    },
    {
      "anonymous": false,
      "inputs": [
        {
          "indexed": true,
          "internalType": "uint256",
          "name": "oldDepositId",
          "type": "uint256"
        },
        {
          "indexed": true,
          "internalType": "uint256",
          "name": "newDepositId",
          "type": "uint256"
        },
        {
          "indexed": false,
          "internalType": "uint256",
          "name": "newPrincipal",
          "type": "uint256"
        },
        {
          "indexed": false,
          "internalType": "uint256",
          "name": "newPlanId",
          "type": "uint256"
        },
        {
          "indexed": false,
          "internalType": "bool",
          "name": "isAuto",
          "type": "bool"
        }
      ],
      "name": "Renewed",
      "type": "event"
    },
    {
      "anonymous": false,
      "inputs": [
        {
          "indexed": true,
          "internalType": "address",
          "name": "from",
          "type": "address"
        },
        {
          "indexed": true,
          "internalType": "address",
          "name": "to",
          "type": "address"
        },
        {
          "indexed": true,
          "internalType": "uint256",
          "name": "tokenId",
          "type": "uint256"
        }
      ],
      "name": "Transfer",
      "type": "event"
    },
    {
      "anonymous": false,
      "inputs": [
        {
          "indexed": false,
          "internalType": "address",
          "name": "account",
          "type": "address"
        }
      ],
      "name": "Unpaused",
      "type": "event"
    },
    {
      "anonymous": false,
      "inputs": [
        {
          "indexed": true,
          "internalType": "uint256",
          "name": "depositId",
          "type": "uint256"
        },
        {
          "indexed": true,
          "internalType": "address",
          "name": "owner",
          "type": "address"
        },
        {
          "indexed": false,
          "internalType": "uint256",
          "name": "principal",
          "type": "uint256"
        },
        {
          "indexed": false,
          "internalType": "uint256",
          "name": "interest",
          "type": "uint256"
        },
        {
          "indexed": false,
          "internalType": "bool",
          "name": "isEarly",
          "type": "bool"
        }
      ],
      "name": "Withdrawn",
      "type": "event"
    },
    {
      "inputs": [],
      "name": "GRACE_PERIOD_SECONDS",
      "outputs": [
        {
          "internalType": "uint256",
          "name": "",
          "type": "uint256"
        }
      ],
      "stateMutability": "view",
      "type": "function"
    },
    {
      "inputs": [],
      "name": "SECONDS_PER_YEAR",
      "outputs": [
        {
          "internalType": "uint256",
          "name": "",
          "type": "uint256"
        }
      ],
      "stateMutability": "view",
      "type": "function"
    },
    {
      "inputs": [
        {
          "internalType": "address",
          "name": "to",
          "type": "address"
        },
        {
          "internalType": "uint256",
          "name": "tokenId",
          "type": "uint256"
        }
      ],
      "name": "approve",
      "outputs": [],
      "stateMutability": "nonpayable",
      "type": "function"
    },
    {
      "inputs": [
        {
          "internalType": "uint256",
          "name": "depositId",
          "type": "uint256"
        }
      ],
      "name": "autoRenewDeposit",
      "outputs": [],
      "stateMutability": "nonpayable",
      "type": "function"
    },
    {
      "inputs": [
        {
          "internalType": "address",
          "name": "owner",
          "type": "address"
        }
      ],
      "name": "balanceOf",
      "outputs": [
        {
          "internalType": "uint256",
          "name": "",
          "type": "uint256"
        }
      ],
      "stateMutability": "view",
      "type": "function"
    },
    {
      "inputs": [
        {
          "internalType": "uint256",
          "name": "principal",
          "type": "uint256"
        },
        {
          "internalType": "uint256",
          "name": "aprBps",
          "type": "uint256"
        },
        {
          "internalType": "uint256",
          "name": "fromTime",
          "type": "uint256"
        },
        {
          "internalType": "uint256",
          "name": "toTime",
          "type": "uint256"
        }
      ],
      "name": "calculateInterest",
      "outputs": [
        {
          "internalType": "uint256",
          "name": "",
          "type": "uint256"
        }
      ],
      "stateMutability": "pure",
      "type": "function"
    },
    {
      "inputs": [
        {
          "internalType": "uint256",
          "name": "tenorDays",
          "type": "uint256"
        },
        {
          "internalType": "uint256",
          "name": "aprBps",
          "type": "uint256"
        },
        {
          "internalType": "uint256",
          "name": "minDeposit",
          "type": "uint256"
        },
        {
          "internalType": "uint256",
          "name": "maxDeposit",
          "type": "uint256"
        },
        {
          "internalType": "uint256",
          "name": "penaltyBps",
          "type": "uint256"
        }
      ],
      "name": "createPlan",
      "outputs": [
        {
          "internalType": "uint256",
          "name": "planId",
          "type": "uint256"
        }
      ],
      "stateMutability": "nonpayable",
      "type": "function"
    },
    {
      "inputs": [
        {
          "internalType": "uint256",
          "name": "",
          "type": "uint256"
        }
      ],
      "name": "deposits",
      "outputs": [
        {
          "internalType": "address",
          "name": "owner",
          "type": "address"
        },
        {
          "internalType": "uint256",
          "name": "principal",
          "type": "uint256"
        },
        {
          "internalType": "uint256",
          "name": "planId",
          "type": "uint256"
        },
        {
          "internalType": "uint256",
          "name": "aprBpsAtOpen",
          "type": "uint256"
        },
        {
          "internalType": "uint256",
          "name": "penaltyBpsAtOpen",
          "type": "uint256"
        },
        {
          "internalType": "uint256",
          "name": "startAt",
          "type": "uint256"
        },
        {
          "internalType": "uint256",
          "name": "maturityAt",
          "type": "uint256"
        },
        {
          "internalType": "enum SavingCore.DepositStatus",
          "name": "status",
          "type": "uint8"
        }
      ],
      "stateMutability": "view",
      "type": "function"
    },
    {
      "inputs": [
        {
          "internalType": "uint256",
          "name": "planId",
          "type": "uint256"
        }
      ],
      "name": "disablePlan",
      "outputs": [],
      "stateMutability": "nonpayable",
      "type": "function"
    },
    {
      "inputs": [
        {
          "internalType": "uint256",
          "name": "planId",
          "type": "uint256"
        }
      ],
      "name": "enablePlan",
      "outputs": [],
      "stateMutability": "nonpayable",
      "type": "function"
    },
    {
      "inputs": [
        {
          "internalType": "uint256",
          "name": "tokenId",
          "type": "uint256"
        }
      ],
      "name": "getApproved",
      "outputs": [
        {
          "internalType": "address",
          "name": "",
          "type": "address"
        }
      ],
      "stateMutability": "view",
      "type": "function"
    },
    {
      "inputs": [
        {
          "internalType": "uint256",
          "name": "depositId",
          "type": "uint256"
        }
      ],
      "name": "getDeposit",
      "outputs": [
        {
          "components": [
            {
              "internalType": "address",
              "name": "owner",
              "type": "address"
            },
            {
              "internalType": "uint256",
              "name": "principal",
              "type": "uint256"
            },
            {
              "internalType": "uint256",
              "name": "planId",
              "type": "uint256"
            },
            {
              "internalType": "uint256",
              "name": "aprBpsAtOpen",
              "type": "uint256"
            },
            {
              "internalType": "uint256",
              "name": "penaltyBpsAtOpen",
              "type": "uint256"
            },
            {
              "internalType": "uint256",
              "name": "startAt",
              "type": "uint256"
            },
            {
              "internalType": "uint256",
              "name": "maturityAt",
              "type": "uint256"
            },
            {
              "internalType": "enum SavingCore.DepositStatus",
              "name": "status",
              "type": "uint8"
            }
          ],
          "internalType": "struct SavingCore.Deposit",
          "name": "",
          "type": "tuple"
        }
      ],
      "stateMutability": "view",
      "type": "function"
    },
    {
      "inputs": [
        {
          "internalType": "address",
          "name": "owner",
          "type": "address"
        }
      ],
      "name": "getDepositsByOwner",
      "outputs": [
        {
          "internalType": "uint256[]",
          "name": "",
          "type": "uint256[]"
        }
      ],
      "stateMutability": "view",
      "type": "function"
    },
    {
      "inputs": [
        {
          "internalType": "uint256",
          "name": "planId",
          "type": "uint256"
        }
      ],
      "name": "getPlan",
      "outputs": [
        {
          "components": [
            {
              "internalType": "uint256",
              "name": "tenorDays",
              "type": "uint256"
            },
            {
              "internalType": "uint256",
              "name": "aprBps",
              "type": "uint256"
            },
            {
              "internalType": "uint256",
              "name": "minDeposit",
              "type": "uint256"
            },
            {
              "internalType": "uint256",
              "name": "maxDeposit",
              "type": "uint256"
            },
            {
              "internalType": "uint256",
              "name": "penaltyBps",
              "type": "uint256"
            },
            {
              "internalType": "bool",
              "name": "enabled",
              "type": "bool"
            }
          ],
          "internalType": "struct SavingCore.Plan",
          "name": "",
          "type": "tuple"
        }
      ],
      "stateMutability": "view",
      "type": "function"
    },
    {
      "inputs": [
        {
          "internalType": "address",
          "name": "owner",
          "type": "address"
        },
        {
          "internalType": "address",
          "name": "operator",
          "type": "address"
        }
      ],
      "name": "isApprovedForAll",
      "outputs": [
        {
          "internalType": "bool",
          "name": "",
          "type": "bool"
        }
      ],
      "stateMutability": "view",
      "type": "function"
    },
    {
      "inputs": [],
      "name": "name",
      "outputs": [
        {
          "internalType": "string",
          "name": "",
          "type": "string"
        }
      ],
      "stateMutability": "view",
      "type": "function"
    },
    {
      "inputs": [],
      "name": "nextDepositId",
      "outputs": [
        {
          "internalType": "uint256",
          "name": "",
          "type": "uint256"
        }
      ],
      "stateMutability": "view",
      "type": "function"
    },
    {
      "inputs": [],
      "name": "nextPlanId",
      "outputs": [
        {
          "internalType": "uint256",
          "name": "",
          "type": "uint256"
        }
      ],
      "stateMutability": "view",
      "type": "function"
    },
    {
      "inputs": [
        {
          "internalType": "uint256",
          "name": "planId",
          "type": "uint256"
        },
        {
          "internalType": "uint256",
          "name": "amount",
          "type": "uint256"
        }
      ],
      "name": "openDeposit",
      "outputs": [],
      "stateMutability": "nonpayable",
      "type": "function"
    },
    {
      "inputs": [],
      "name": "owner",
      "outputs": [
        {
          "internalType": "address",
          "name": "",
          "type": "address"
        }
      ],
      "stateMutability": "view",
      "type": "function"
    },
    {
      "inputs": [
        {
          "internalType": "uint256",
          "name": "tokenId",
          "type": "uint256"
        }
      ],
      "name": "ownerOf",
      "outputs": [
        {
          "internalType": "address",
          "name": "",
          "type": "address"
        }
      ],
      "stateMutability": "view",
      "type": "function"
    },
    {
      "inputs": [],
      "name": "pause",
      "outputs": [],
      "stateMutability": "nonpayable",
      "type": "function"
    },
    {
      "inputs": [],
      "name": "paused",
      "outputs": [
        {
          "internalType": "bool",
          "name": "",
          "type": "bool"
        }
      ],
      "stateMutability": "view",
      "type": "function"
    },
    {
      "inputs": [
        {
          "internalType": "uint256",
          "name": "",
          "type": "uint256"
        }
      ],
      "name": "plans",
      "outputs": [
        {
          "internalType": "uint256",
          "name": "tenorDays",
          "type": "uint256"
        },
        {
          "internalType": "uint256",
          "name": "aprBps",
          "type": "uint256"
        },
        {
          "internalType": "uint256",
          "name": "minDeposit",
          "type": "uint256"
        },
        {
          "internalType": "uint256",
          "name": "maxDeposit",
          "type": "uint256"
        },
        {
          "internalType": "uint256",
          "name": "penaltyBps",
          "type": "uint256"
        },
        {
          "internalType": "bool",
          "name": "enabled",
          "type": "bool"
        }
      ],
      "stateMutability": "view",
      "type": "function"
    },
    {
      "inputs": [
        {
          "internalType": "uint256",
          "name": "depositId",
          "type": "uint256"
        },
        {
          "internalType": "uint256",
          "name": "newPlanId",
          "type": "uint256"
        }
      ],
      "name": "renewDeposit",
      "outputs": [],
      "stateMutability": "nonpayable",
      "type": "function"
    },
    {
      "inputs": [],
      "name": "renounceOwnership",
      "outputs": [],
      "stateMutability": "nonpayable",
      "type": "function"
    },
    {
      "inputs": [
        {
          "internalType": "address",
          "name": "from",
          "type": "address"
        },
        {
          "internalType": "address",
          "name": "to",
          "type": "address"
        },
        {
          "internalType": "uint256",
          "name": "tokenId",
          "type": "uint256"
        }
      ],
      "name": "safeTransferFrom",
      "outputs": [],
      "stateMutability": "nonpayable",
      "type": "function"
    },
    {
      "inputs": [
        {
          "internalType": "address",
          "name": "from",
          "type": "address"
        },
        {
          "internalType": "address",
          "name": "to",
          "type": "address"
        },
        {
          "internalType": "uint256",
          "name": "tokenId",
          "type": "uint256"
        },
        {
          "internalType": "bytes",
          "name": "data",
          "type": "bytes"
        }
      ],
      "name": "safeTransferFrom",
      "outputs": [],
      "stateMutability": "nonpayable",
      "type": "function"
    },
    {
      "inputs": [
        {
          "internalType": "address",
          "name": "operator",
          "type": "address"
        },
        {
          "internalType": "bool",
          "name": "approved",
          "type": "bool"
        }
      ],
      "name": "setApprovalForAll",
      "outputs": [],
      "stateMutability": "nonpayable",
      "type": "function"
    },
    {
      "inputs": [
        {
          "internalType": "string",
          "name": "newBaseURI",
          "type": "string"
        }
      ],
      "name": "setBaseURI",
      "outputs": [],
      "stateMutability": "nonpayable",
      "type": "function"
    },
    {
      "inputs": [
        {
          "internalType": "bytes4",
          "name": "interfaceId",
          "type": "bytes4"
        }
      ],
      "name": "supportsInterface",
      "outputs": [
        {
          "internalType": "bool",
          "name": "",
          "type": "bool"
        }
      ],
      "stateMutability": "view",
      "type": "function"
    },
    {
      "inputs": [],
      "name": "symbol",
      "outputs": [
        {
          "internalType": "string",
          "name": "",
          "type": "string"
        }
      ],
      "stateMutability": "view",
      "type": "function"
    },
    {
      "inputs": [
        {
          "internalType": "uint256",
          "name": "index",
          "type": "uint256"
        }
      ],
      "name": "tokenByIndex",
      "outputs": [
        {
          "internalType": "uint256",
          "name": "",
          "type": "uint256"
        }
      ],
      "stateMutability": "view",
      "type": "function"
    },
    {
      "inputs": [
        {
          "internalType": "address",
          "name": "owner",
          "type": "address"
        },
        {
          "internalType": "uint256",
          "name": "index",
          "type": "uint256"
        }
      ],
      "name": "tokenOfOwnerByIndex",
      "outputs": [
        {
          "internalType": "uint256",
          "name": "",
          "type": "uint256"
        }
      ],
      "stateMutability": "view",
      "type": "function"
    },
    {
      "inputs": [
        {
          "internalType": "uint256",
          "name": "tokenId",
          "type": "uint256"
        }
      ],
      "name": "tokenURI",
      "outputs": [
        {
          "internalType": "string",
          "name": "",
          "type": "string"
        }
      ],
      "stateMutability": "view",
      "type": "function"
    },
    {
      "inputs": [],
      "name": "totalSupply",
      "outputs": [
        {
          "internalType": "uint256",
          "name": "",
          "type": "uint256"
        }
      ],
      "stateMutability": "view",
      "type": "function"
    },
    {
      "inputs": [
        {
          "internalType": "address",
          "name": "from",
          "type": "address"
        },
        {
          "internalType": "address",
          "name": "to",
          "type": "address"
        },
        {
          "internalType": "uint256",
          "name": "tokenId",
          "type": "uint256"
        }
      ],
      "name": "transferFrom",
      "outputs": [],
      "stateMutability": "nonpayable",
      "type": "function"
    },
    {
      "inputs": [
        {
          "internalType": "address",
          "name": "newOwner",
          "type": "address"
        }
      ],
      "name": "transferOwnership",
      "outputs": [],
      "stateMutability": "nonpayable",
      "type": "function"
    },
    {
      "inputs": [],
      "name": "unpause",
      "outputs": [],
      "stateMutability": "nonpayable",
      "type": "function"
    },
    {
      "inputs": [
        {
          "internalType": "uint256",
          "name": "planId",
          "type": "uint256"
        },
        {
          "internalType": "uint256",
          "name": "newAprBps",
          "type": "uint256"
        }
      ],
      "name": "updatePlan",
      "outputs": [],
      "stateMutability": "nonpayable",
      "type": "function"
    },
    {
      "inputs": [],
      "name": "usdc",
      "outputs": [
        {
          "internalType": "contract IERC20",
          "name": "",
          "type": "address"
        }
      ],
      "stateMutability": "view",
      "type": "function"
    },
    {
      "inputs": [],
      "name": "vaultManager",
      "outputs": [
        {
          "internalType": "contract VaultManager",
          "name": "",
          "type": "address"
        }
      ],
      "stateMutability": "view",
      "type": "function"
    },
    {
      "inputs": [
        {
          "internalType": "uint256",
          "name": "depositId",
          "type": "uint256"
        }
      ],
      "name": "withdraw",
      "outputs": [],
      "stateMutability": "nonpayable",
      "type": "function"
    }
  ],
  "bytecode": "0x60c06040523480156200001157600080fd5b50604051620090aa380380620090aa83398181016040528101906200003791906200071e565b6040518060400160405280601081526020017f5465726d204465706f736974204e4654000000000000000000000000000000008152506040518060400160405280600581526020017f54444e46540000000000000000000000000000000000000000000000000000008152508160009081620000b49190620009fa565b508060019081620000c69190620009fa565b505050620000e9620000dd6200045560201b60201c565b6200045d60201b60201c565b6000600a60146101000a81548160ff0219169083151502179055506001600b819055506200012867eb22980ae3421d6660c01b6200052360201b60201c565b62000144673cfb1ef3f2ec93c560c01b6200052360201b60201c565b620001606799b1f22eb046b6e260c01b6200052360201b60201c565b6200017c67a2f30e64eb9b57e860c01b6200052360201b60201c565b600073ffffffffffffffffffffffffffffffffffffffff168473ffffffffffffffffffffffffffffffffffffffff1603620001ee576040517f08c379a0000000000000000000000000000000000000000000000000000000008152600401620001e59062000b42565b60405180910390fd5b6200020a67af5536770f75f70d60c01b6200052360201b60201c565b6200022667ccaadc31cc0df9f660c01b6200052360201b60201c565b6200024267d11802a83400cd3a60c01b6200052360201b60201c565b6200025e67fe29ccfad903751e60c01b6200052360201b60201c565b600073ffffffffffffffffffffffffffffffffffffffff168373ffffffffffffffffffffffffffffffffffffffff1603620002d0576040517f08c379a0000000000000000000000000000000000000000000000000000000008152600401620002c79062000bb4565b60405180910390fd5b620002ec6747e7ab8437b99e9160c01b6200052360201b60201c565b620003086773e902563ea2069260c01b6200052360201b60201c565b8373ffffffffffffffffffffffffffffffffffffffff1660808173ffffffffffffffffffffffffffffffffffffffff168152505062000358676bc74e744cfe791060c01b6200052360201b60201c565b8273ffffffffffffffffffffffffffffffffffffffff1660a08173ffffffffffffffffffffffffffffffffffffffff1681525050620003a867eda73b71751473f760c01b6200052360201b60201c565b81600c9081620003b99190620009fa565b50620003d667f875a46fc2642d6c60c01b6200052360201b60201c565b620003f2675f024ff05f1c801260c01b6200052360201b60201c565b62000403816200045d60201b60201c565b6200041f67c3baa81a5a50d7fc60c01b6200052360201b60201c565b6001600d81905550620004436785592f484519ecbe60c01b6200052360201b60201c565b6001600e819055505050505062000bd6565b600033905090565b6000600a60009054906101000a900473ffffffffffffffffffffffffffffffffffffffff16905081600a60006101000a81548173ffffffffffffffffffffffffffffffffffffffff021916908373ffffffffffffffffffffffffffffffffffffffff1602179055508173ffffffffffffffffffffffffffffffffffffffff168173ffffffffffffffffffffffffffffffffffffffff167f8be0079c531659141344cd1fd0a4f28419497f9722a3daafe3b4186f6b6457e060405160405180910390a35050565b50565b6000604051905090565b600080fd5b600080fd5b600073ffffffffffffffffffffffffffffffffffffffff82169050919050565b600062000567826200053a565b9050919050565b62000579816200055a565b81146200058557600080fd5b50565b60008151905062000599816200056e565b92915050565b600080fd5b600080fd5b6000601f19601f8301169050919050565b7f4e487b7100000000000000000000000000000000000000000000000000000000600052604160045260246000fd5b620005f482620005a9565b810181811067ffffffffffffffff82111715620006165762000615620005ba565b5b80604052505050565b60006200062b62000526565b9050620006398282620005e9565b919050565b600067ffffffffffffffff8211156200065c576200065b620005ba565b5b6200066782620005a9565b9050602081019050919050565b60005b838110156200069457808201518184015260208101905062000677565b60008484015250505050565b6000620006b7620006b1846200063e565b6200061f565b905082815260208101848484011115620006d657620006d5620005a4565b5b620006e384828562000674565b509392505050565b600082601f8301126200070357620007026200059f565b5b815162000715848260208601620006a0565b91505092915050565b600080600080608085870312156200073b576200073a62000530565b5b60006200074b8782880162000588565b94505060206200075e8782880162000588565b935050604085015167ffffffffffffffff81111562000782576200078162000535565b5b6200079087828801620006eb565b9250506060620007a38782880162000588565b91505092959194509250565b600081519050919050565b7f4e487b7100000000000000000000000000000000000000000000000000000000600052602260045260246000fd5b600060028204905060018216806200080257607f821691505b602082108103620008185762000817620007ba565b5b50919050565b60008190508160005260206000209050919050565b60006020601f8301049050919050565b600082821b905092915050565b600060088302620008827fffffffffffffffffffffffffffffffffffffffffffffffffffffffffffffffff8262000843565b6200088e868362000843565b95508019841693508086168417925050509392505050565b6000819050919050565b6000819050919050565b6000620008db620008d5620008cf84620008a6565b620008b0565b620008a6565b9050919050565b6000819050919050565b620008f783620008ba565b6200090f6200090682620008e2565b84845462000850565b825550505050565b600090565b6200092662000917565b62000933818484620008ec565b505050565b5b818110156200095b576200094f6000826200091c565b60018101905062000939565b5050565b601f821115620009aa5762000974816200081e565b6200097f8462000833565b810160208510156200098f578190505b620009a76200099e8562000833565b83018262000938565b50505b505050565b600082821c905092915050565b6000620009cf60001984600802620009af565b1980831691505092915050565b6000620009ea8383620009bc565b9150826002028217905092915050565b62000a0582620007af565b67ffffffffffffffff81111562000a215762000a20620005ba565b5b62000a2d8254620007e9565b62000a3a8282856200095f565b600060209050601f83116001811462000a72576000841562000a5d578287015190505b62000a698582620009dc565b86555062000ad9565b601f19841662000a82866200081e565b60005b8281101562000aac5784890151825560018201915060208501945060208101905062000a85565b8683101562000acc578489015162000ac8601f891682620009bc565b8355505b6001600288020188555050505b505050505050565b600082825260208201905092915050565b7f496e76616c6964207661756c74206d616e616765720000000000000000000000600082015250565b600062000b2a60158362000ae1565b915062000b378262000af2565b602082019050919050565b6000602082019050818103600083015262000b5d8162000b1b565b9050919050565b7f496e76616c696420555344430000000000000000000000000000000000000000600082015250565b600062000b9c600c8362000ae1565b915062000ba98262000b64565b602082019050919050565b6000602082019050818103600083015262000bcf8162000b8d565b9050919050565b60805160a05161848462000c2660003960008181611ecf015281816120f001528181612332015281816132f3015261344c015260008181611f0b01528181612e8901526146d501526184846000f3fe608060405234801561001057600080fd5b50600436106102685760003560e01c80635f8d26b2116101515780639cacb6a4116100c3578063b88d4fde11610087578063b88d4fde14610767578063b9855d1d14610783578063c87b56dd1461079f578063e6a69ab8146107cf578063e985e9c5146107ed578063f2fde38b1461081d57610268565b80639cacb6a4146106935780639f9fb968146106af578063a22cb465146106df578063b02c43d0146106fb578063b16206161461073257610268565b8063724dfc9211610115578063724dfc92146105e15780638070a4bd146106115780638456cb591461062f5780638a4adf24146106395780638da5cb5b1461065757806395d89b411461067557610268565b80635f8d26b21461053d5780636352211e1461055b5780636fc4e2d91461058b57806370a08231146105a7578063715018a6146105d757610268565b806323b872dd116101ea5780633f4ba83a116101ae5780633f4ba83a1461047d57806342842e0e146104875780634970a50d146104a35780634f6ccce7146104d357806355f804b3146105035780635c975abb1461051f57610268565b806323b872dd146103c757806326cd5274146103e35780632e1a7d4d146104135780632f745c591461042f5780633e413bee1461045f57610268565b8063095ea7b311610231578063095ea7b3146103235780630a55ba551461033f57806311aeb02a1461035b57806312a4a4c31461038b57806318160ddd146103a957610268565b8062e1801c1461026d57806301ffc9a71461028957806306fdde03146102b9578063081812fc146102d757806308cff7e214610307575b600080fd5b61028760048036038101906102829190615e2e565b610839565b005b6102a3600480360381019061029e9190615ec6565b610a76565b6040516102b09190615f0e565b60405180910390f35b6102c1610ac4565b6040516102ce9190615fb9565b60405180910390f35b6102f160048036038101906102ec9190615fdb565b610b56565b6040516102fe9190616049565b60405180910390f35b610321600480360381019061031c9190615fdb565b610b9c565b005b61033d60048036038101906103389190616090565b610d24565b005b61035960048036038101906103549190615e2e565b610e3b565b005b610375600480360381019061037091906160d0565b611836565b60405161038291906161bb565b60405180910390f35b6103936119ac565b6040516103a091906161ec565b60405180910390f35b6103b16119b3565b6040516103be91906161ec565b60405180910390f35b6103e160048036038101906103dc9190616207565b6119c0565b005b6103fd60048036038101906103f89190615fdb565b611a20565b60405161040a91906162e4565b60405180910390f35b61042d60048036038101906104289190615fdb565b611ad6565b005b61044960048036038101906104449190616090565b61228b565b60405161045691906161ec565b60405180910390f35b610467612330565b604051610474919061635e565b60405180910390f35b610485612354565b005b6104a1600480360381019061049c9190616207565b6123ca565b005b6104bd60048036038101906104b89190616379565b6123ea565b6040516104ca91906161ec565b60405180910390f35b6104ed60048036038101906104e89190615fdb565b612813565b6040516104fa91906161ec565b60405180910390f35b61051d60048036038101906105189190616529565b612884565b005b61052761294e565b6040516105349190615f0e565b60405180910390f35b610545612965565b60405161055291906161ec565b60405180910390f35b61057560048036038101906105709190615fdb565b6129ab565b6040516105829190616049565b60405180910390f35b6105a560048036038101906105a09190615fdb565b612a31565b005b6105c160048036038101906105bc91906160d0565b612bb9565b6040516105ce91906161ec565b60405180910390f35b6105df612c70565b005b6105fb60048036038101906105f69190616572565b612c84565b60405161060891906161ec565b60405180910390f35b610619612dcb565b60405161062691906161ec565b60405180910390f35b610637612e11565b005b610641612e87565b60405161064e91906165fa565b60405180910390f35b61065f612eab565b60405161066c9190616049565b60405180910390f35b61067d612ed5565b60405161068a9190615fb9565b60405180910390f35b6106ad60048036038101906106a89190615e2e565b612f67565b005b6106c960048036038101906106c49190615fdb565b613789565b6040516106d6919061673d565b60405180910390f35b6106f960048036038101906106f49190616785565b6138c0565b005b61071560048036038101906107109190615fdb565b6138d6565b6040516107299897969594939291906167d4565b60405180910390f35b61074c60048036038101906107479190615fdb565b61394b565b60405161075e96959493929190616852565b60405180910390f35b610781600480360381019061077c9190616954565b613994565b005b61079d60048036038101906107989190615fdb565b6139f6565b005b6107b960048036038101906107b49190615fdb565b6140e2565b6040516107c69190615fb9565b60405180910390f35b6107d761414a565b6040516107e491906161ec565b60405180910390f35b610807600480360381019061080291906169d7565b614152565b6040516108149190615f0e565b60405180910390f35b610837600480360381019061083291906160d0565b6141e6565b005b61084d67aa07725e4f17234260c01b614269565b61085561426c565b61086967908bd0d2ffc9c13260c01b614269565b61087d6765fd170dadc5f27360c01b614269565b61089167fa265e000982634260c01b614269565b6108a5675175ac353a3f951d60c01b614269565b6108b967140eed7f6c2f52a260c01b614269565b6000811180156108cb57506127108111155b61090a576040517f08c379a000000000000000000000000000000000000000000000000000000000815260040161090190616a63565b60405180910390fd5b61091e671d6ad6240bf5764d60c01b614269565b610932674941b406ad366b6760c01b614269565b610946673fe5d13cf529634a60c01b614269565b6000600f60008481526020019081526020016000209050610971671b51301a05407af860c01b614269565b61098567336e79b0aa728f9960c01b614269565b61099967d154d915c68c143e60c01b614269565b60008160000154116109e0576040517f08c379a00000000000000000000000000000000000000000000000000000000081526004016109d790616acf565b60405180910390fd5b6109f467a2145391d17400b560c01b614269565b610a0867f37ac0a1a703a0f260c01b614269565b818160010181905550610a25676a2863629c488fc460c01b614269565b610a3967b7cf8be8d397daf060c01b614269565b827fc00f69016813c0714e0c2e862fef4d363b0d3a40691e530f1038d580bba6e07b83604051610a6991906161ec565b60405180910390a2505050565b6000610a8c6793d643c45e74edd260c01b614269565b610aa067f15071d044a566cb60c01b614269565b610ab46750423a8278017e7960c01b614269565b610abd826142ea565b9050919050565b606060008054610ad390616b1e565b80601f0160208091040260200160405190810160405280929190818152602001828054610aff90616b1e565b8015610b4c5780601f10610b2157610100808354040283529160200191610b4c565b820191906000526020600020905b815481529060010190602001808311610b2f57829003601f168201915b5050505050905090565b6000610b6182614364565b6004600083815260200190815260200160002060009054906101000a900473ffffffffffffffffffffffffffffffffffffffff169050919050565b610bb0678cdb34bedd1c070e60c01b614269565b610bb861426c565b610bcc67b7d6e5360ee44d0460c01b614269565b610be067a892a0793ad79ee360c01b614269565b610bf467c358fb60bcc7d2ff60c01b614269565b610c0867da892b4e9f69b35360c01b614269565b610c1c6788b7d1aefe80131160c01b614269565b6000600f60008381526020019081526020016000206000015411610c75576040517f08c379a0000000000000000000000000000000000000000000000000000000008152600401610c6c90616acf565b60405180910390fd5b610c89677ac047e623905ce460c01b614269565b610c9d67218f0e452619ecc560c01b614269565b6000600f600083815260200190815260200160002060050160006101000a81548160ff021916908315150217905550610ce06703408a3388da626760c01b614269565b610cf467708d10dec495cf2060c01b614269565b807fb8e8c474ecb4c62992ecd0758ae63d861cd288bb6677ea65a2b783444a448ab660405160405180910390a250565b6000610d2f826129ab565b90508073ffffffffffffffffffffffffffffffffffffffff168373ffffffffffffffffffffffffffffffffffffffff1603610d9f576040517f08c379a0000000000000000000000000000000000000000000000000000000008152600401610d9690616bc1565b60405180910390fd5b8073ffffffffffffffffffffffffffffffffffffffff16610dbe6143af565b73ffffffffffffffffffffffffffffffffffffffff161480610ded5750610dec81610de76143af565b614152565b5b610e2c576040517f08c379a0000000000000000000000000000000000000000000000000000000008152600401610e2390616c53565b60405180910390fd5b610e3683836143b7565b505050565b610e4f677d907dca8e4bf72a60c01b614269565b610e57614470565b610e6b679c9b1967bdda13fc60c01b614269565b610e7f671d2f7d7bac395ebb60c01b614269565b610e876144ba565b610e9b677f128a10760c1e3460c01b614269565b610eaf67ed9866450c48bb5460c01b614269565b610ec367669a984f7c96381060c01b614269565b610ed7677eb52355797b181c60c01b614269565b6000601060008481526020019081526020016000209050610f026741c60972d0d1cbb860c01b614269565b610f166746ad74f35cd63c0260c01b614269565b610f2a677d6141105fa097f660c01b614269565b3373ffffffffffffffffffffffffffffffffffffffff168160000160009054906101000a900473ffffffffffffffffffffffffffffffffffffffff1673ffffffffffffffffffffffffffffffffffffffff1614610fbc576040517f08c379a0000000000000000000000000000000000000000000000000000000008152600401610fb390616cbf565b60405180910390fd5b610fd0671910306f144907a760c01b614269565b610fe467524e724556bde6db60c01b614269565b610ff867960b2fad40a9a90760c01b614269565b61100c6769b3b4c994e7bbdc60c01b614269565b600060038111156110205761101f616624565b5b8160070160009054906101000a900460ff16600381111561104457611043616624565b5b14611084576040517f08c379a000000000000000000000000000000000000000000000000000000000815260040161107b90616d2b565b60405180910390fd5b61109867018a8c7149e3b14d60c01b614269565b6110ac678c0261b3ef22323760c01b614269565b6110c06704e4db87b266590460c01b614269565b6110d467e60c31202f5a93a060c01b614269565b806006015442101561111b576040517f08c379a000000000000000000000000000000000000000000000000000000000815260040161111290616d97565b60405180910390fd5b61112f6769f6a2192b2231bb60c01b614269565b61114367538fd12d6713802860c01b614269565b611157670d8f59cb8a5222bc60c01b614269565b61116b67278cb00e5b0bd2b160c01b614269565b6203f480816006015461117e9190616de6565b4211156111c0576040517f08c379a00000000000000000000000000000000000000000000000000000000081526004016111b790616e66565b60405180910390fd5b6111d467479dc1d82023864160c01b614269565b6111e86787121cfe53c8987e60c01b614269565b6111fc67f0acd2c0ab82618f60c01b614269565b6000600f60008481526020019081526020016000209050611227671ad1d4b6512cd36560c01b614269565b61123b675ddd33d7b0d696db60c01b614269565b61124f673ed9e799f9ae802060c01b614269565b6000816000015411611296576040517f08c379a000000000000000000000000000000000000000000000000000000000815260040161128d90616ed2565b60405180910390fd5b6112aa672a5b5581f1dcd19060c01b614269565b6112be67be69a25f6638775b60c01b614269565b6112d267771cc8e12aff7aee60c01b614269565b6112e667dfb83b15ab64591160c01b614269565b8060050160009054906101000a900460ff16611337576040517f08c379a000000000000000000000000000000000000000000000000000000000815260040161132e90616f3e565b60405180910390fd5b61134b675f3a89d3bb8a404b60c01b614269565b61135f67d6cd9f6cf081846e60c01b614269565b61137367363e375a5ecb252d60c01b614269565b60006113918360010154846003015485600501548660060154614509565b90506113a76723f8e56a54fa676160c01b614269565b6113bb67397b0fdfbcc3925c60c01b614269565b60008184600101546113cd9190616de6565b90506113e3671ccd64c4db8f1dc060c01b614269565b6113f767cd2e001dbe4f430760c01b614269565b61140b679de3f8631a686a4160c01b614269565b8260020154811015611452576040517f08c379a000000000000000000000000000000000000000000000000000000000815260040161144990616faa565b60405180910390fd5b6114666701dad10363498ce260c01b614269565b61147a67ad1d8696dde04b2b60c01b614269565b61148e67bce75e99bd94580060c01b614269565b6114a267d55e23a0f958681160c01b614269565b600083600301541480156114c657506114c567f83e0cc0a6642ba260c01b614647565b5b806114f15750826003015481111580156114f057506114ef671c96ba212f122bd260c01b614647565b5b5b611530576040517f08c379a000000000000000000000000000000000000000000000000000000000815260040161152790617016565b60405180910390fd5b611544675bf40e6046b9124760c01b614269565b61155867232268d6a474e47660c01b614269565b61156c679a6e5718534d795a60c01b614269565b60006201518084600001546115819190617036565b4261158c9190616de6565b90506115a267f4956ff14e6daf7160c01b614269565b6115b667dffdc4e70f8813dd60c01b614269565b6000600d60008154809291906115cb90617078565b9190505590506115e5678b24b7546058eb4360c01b614269565b6040518061010001604052803373ffffffffffffffffffffffffffffffffffffffff16815260200184815260200188815260200186600101548152602001866004015481526020014281526020018381526020016000600381111561164d5761164c616624565b5b8152506010600083815260200190815260200160002060008201518160000160006101000a81548173ffffffffffffffffffffffffffffffffffffffff021916908373ffffffffffffffffffffffffffffffffffffffff1602179055506020820151816001015560408201518160020155606082015181600301556080820151816004015560a0820151816005015560c0820151816006015560e08201518160070160006101000a81548160ff0219169083600381111561171157611710616624565b5b021790555090505061172d6710a2d601d33bcf4260c01b614269565b61174167b94b3c808017ef2760c01b614269565b61174b3385614652565b61175f676a278f34f065aa6b60c01b614269565b60028660070160006101000a81548160ff0219169083600381111561178757611786616624565b5b02179055506117a0676713a1f85119571c60c01b614269565b6117b46735cf4ec7c9b06ad160c01b614269565b6117be338261477e565b6117d2676a04f8425374673e60c01b614269565b6117e6674eaf51943c156e6460c01b614269565b80887f78b6fc71c40d899094e4295bca975a4bc0aeac7356de4933255d769351b2a764858a600060405161181c939291906170c0565b60405180910390a350505050505061183261499b565b5050565b606061184c6751403859db03c68b60c01b614269565b61186067dad6efaaae02280960c01b614269565b611874673f5dc3f92c81c5b860c01b614269565b600061187f83612bb9565b9050611895675f31760168f265b760c01b614269565b6118a9675bd302b1d4f7188d60c01b614269565b60008167ffffffffffffffff8111156118c5576118c46163fe565b5b6040519080825280602002602001820160405280156118f35781602001602082028036833780820191505090505b50905061190a675862f5f8bc85c7fa60c01b614269565b61191e6762b9ae6fcf6c7c0c60c01b614269565b60005b828110156119795761193d672c65ad0a0e85b99d60c01b614269565b611947858261228b565b82828151811061195a576119596170f7565b5b602002602001018181525050808061197190617078565b915050611921565b5061198e6744287e174d16113d60c01b614269565b6119a267f3864c737f92879060c01b614269565b8092505050919050565b6203f48081565b6000600880549050905090565b6119d16119cb6143af565b826149a5565b611a10576040517f08c379a0000000000000000000000000000000000000000000000000000000008152600401611a0790617198565b60405180910390fd5b611a1b838383614a3a565b505050565b611a28615d3f565b611a3c675ec52478322b364d60c01b614269565b611a50674237cb3423c6eb1160c01b614269565b611a646743816a52c3bdad0560c01b614269565b600f60008381526020019081526020016000206040518060c001604052908160008201548152602001600182015481526020016002820154815260200160038201548152602001600482015481526020016005820160009054906101000a900460ff1615151515815250509050919050565b611aea674ef35844686fc11460c01b614269565b611af2614470565b611b066751b293ed9123698460c01b614269565b611b1a67962ff4068a93eae960c01b614269565b611b226144ba565b611b3667a0bc6dd876ad876e60c01b614269565b611b4a6793b7a36665b6761a60c01b614269565b611b5e67e578fb065bfff1e760c01b614269565b611b726737701728cac97b5760c01b614269565b6000601060008381526020019081526020016000209050611b9d673dc9f9a375a5de6a60c01b614269565b611bb1678bdff7a382dad9ee60c01b614269565b611bc56765794041c20e960660c01b614269565b3373ffffffffffffffffffffffffffffffffffffffff168160000160009054906101000a900473ffffffffffffffffffffffffffffffffffffffff1673ffffffffffffffffffffffffffffffffffffffff1614611c57576040517f08c379a0000000000000000000000000000000000000000000000000000000008152600401611c4e90616cbf565b60405180910390fd5b611c6b67be633d88c5cfd58760c01b614269565b611c7f67513aa1d9b834223f60c01b614269565b611c936753860a0dd15db6d360c01b614269565b611ca7676318e567c9a8a4fc60c01b614269565b60006003811115611cbb57611cba616624565b5b8160070160009054906101000a900460ff166003811115611cdf57611cde616624565b5b14611d1f576040517f08c379a0000000000000000000000000000000000000000000000000000000008152600401611d1690616d2b565b60405180910390fd5b611d3367f0d010c4e07436b760c01b614269565b611d47670c8091c60f9cdd7460c01b614269565b611d5b67dc4982feef683aa860c01b614269565b6000816006015442109050611d7a67221838da5a5fd9b160c01b614269565b611d8e67088bed8f8260099b60c01b614269565b600082600101549050611dab670ecb6ebd1a1fede560c01b614269565b611dbf678a580c32589d8f6060c01b614269565b6000611dd567f98c86181852ed4060c01b614269565b611de967795c4746117197a460c01b614269565b6000611dff674e0132c843bbbd2460c01b614269565b611e13674ad6bd8c2618c12660c01b614269565b831561201957611e2d670435fb36b456e1ca60c01b614269565b611e41678ccc4ecaab3e2c3660c01b614269565b612710856004015484611e549190617036565b611e5e91906171e7565b9050611e74673a15f661cd0b5e8760c01b614269565b611e886724617b3eef0b482f60c01b614269565b6000811115611fff57611ea567c26bc0d5acb4bf0960c01b614269565b611eb96729a93b628b53e78260c01b614269565b611ecd675ed70f597699e56f60c01b614269565b7f000000000000000000000000000000000000000000000000000000000000000073ffffffffffffffffffffffffffffffffffffffff1663a9059cbb7f000000000000000000000000000000000000000000000000000000000000000073ffffffffffffffffffffffffffffffffffffffff1663b3f006746040518163ffffffff1660e01b8152600401602060405180830381865afa158015611f74573d6000803e3d6000fd5b505050506040513d601f19601f82011682018060405250810190611f98919061722d565b836040518363ffffffff1660e01b8152600401611fb692919061725a565b6020604051808303816000875af1158015611fd5573d6000803e3d6000fd5b505050506040513d601f19601f82011682018060405250810190611ff99190617298565b50612014565b6120136736311f9ff9e0207f60c01b614269565b5b61208e565b61202d670f79df9e79e84eaa60c01b614269565b61204167533f7b7895f2088060c01b614269565b61205983866003015487600501548860060154614509565b915061206f670eea21259d9bbf7760c01b614269565b612083671aa882fc37f4201d60c01b614269565b61208d3383614652565b5b6120a26746001c78c27e9ae360c01b614269565b6120b6677f66ab64bf1875c560c01b614269565b600081846120c491906172c5565b90506120da67204578c444fd290760c01b614269565b6120ee67e7f8f033b7515c6b60c01b614269565b7f000000000000000000000000000000000000000000000000000000000000000073ffffffffffffffffffffffffffffffffffffffff1663a9059cbb33836040518363ffffffff1660e01b815260040161214992919061725a565b6020604051808303816000875af1158015612168573d6000803e3d6000fd5b505050506040513d601f19601f8201168201806040525081019061218c9190617298565b506121a16787cecd9c9737e2c360c01b614269565b60018660070160006101000a81548160ff021916908360038111156121c9576121c8616624565b5b02179055506121e2675617ebd00458d81b60c01b614269565b6121f6670ea1bfe9676d12eb60c01b614269565b6121ff87614d33565b612213671d53e506b8b091f660c01b614269565b61222767eb72bd0644f73ff160c01b614269565b3373ffffffffffffffffffffffffffffffffffffffff16877f5d9a2c873b77448f60d674e17f5c6236d1c59646f5fb9db39b36afc83e4471bc868689604051612272939291906170c0565b60405180910390a350505050505061228861499b565b50565b600061229683612bb9565b82106122d7576040517f08c379a00000000000000000000000000000000000000000000000000000000081526004016122ce9061736b565b60405180910390fd5b600660008473ffffffffffffffffffffffffffffffffffffffff1673ffffffffffffffffffffffffffffffffffffffff168152602001908152602001600020600083815260200190815260200160002054905092915050565b7f000000000000000000000000000000000000000000000000000000000000000081565b6123686778fdbb09868b14e360c01b614269565b61237061426c565b61238467ed1f6cd0cb7ac66f60c01b614269565b6123986733ad28aff9d41a0460c01b614269565b6123ac6787a96f3384c7f8a360c01b614269565b6123c0679a9bd08f9b63af7560c01b614269565b6123c8614e81565b565b6123e583838360405180602001604052806000815250613994565b505050565b60006124006759dbd89a6834a09960c01b614269565b61240861426c565b61241c67d683fb873518d43960c01b614269565b61243067cef572f4ccbcd43360c01b614269565b61244467ba07684d28de725c60c01b614269565b61245867e59423c57fcc462460c01b614269565b61246c67627e690e94cd0e4260c01b614269565b600086116124af576040517f08c379a00000000000000000000000000000000000000000000000000000000081526004016124a6906173d7565b60405180910390fd5b6124c3676af96c76f37f4e1260c01b614269565b6124d7678292de1c5de6a94f60c01b614269565b6124eb6742569424cdb31e9560c01b614269565b6124ff67f579d8743105171560c01b614269565b60008511801561251157506127108511155b612550576040517f08c379a000000000000000000000000000000000000000000000000000000000815260040161254790616a63565b60405180910390fd5b61256467aab1961afad3516e60c01b614269565b61257867cba0207ab708b51360c01b614269565b61258c67ea48c48dc5d5eef360c01b614269565b6125a0677cc2b1a24aaf822060c01b614269565b6000831480156125c057506125bf67b9c202e617e9c4bb60c01b614647565b5b806125e757508284111580156125e657506125e56769640bae27710b9260c01b614647565b5b5b612626576040517f08c379a000000000000000000000000000000000000000000000000000000000815260040161261d90617443565b60405180910390fd5b61263a6753a0509f1cee0ac560c01b614269565b61264e67e5796178a368255660c01b614269565b61266267d12c302a4e2fa05d60c01b614269565b6126766729e4ae54698fe9e660c01b614269565b6127108211156126bb576040517f08c379a00000000000000000000000000000000000000000000000000000000081526004016126b2906174af565b60405180910390fd5b6126cf67fc099968f234b45f60c01b614269565b6126e367f80f61add332a23860c01b614269565b600e60008154809291906126f690617078565b91905055905061271067e8e8a3db2dcb8a2060c01b614269565b6040518060c0016040528087815260200186815260200185815260200184815260200183815260200160011515815250600f6000838152602001908152602001600020600082015181600001556020820151816001015560408201518160020155606082015181600301556080820151816004015560a08201518160050160006101000a81548160ff0219169083151502179055509050506127bc671ae314650fdf08ce60c01b614269565b6127d067c03b69ab5541ee4160c01b614269565b807f3c23b7bbdb7ee0acd2bf877ca1c70aa85ad90f581c13076913998f20b6e1e9b987876040516128029291906174cf565b60405180910390a295945050505050565b600061281d6119b3565b821061285e576040517f08c379a00000000000000000000000000000000000000000000000000000000081526004016128559061756a565b60405180910390fd5b60088281548110612872576128716170f7565b5b90600052602060002001549050919050565b61289867437171ab05109aef60c01b614269565b6128a061426c565b6128b4673de1239fd8d1239560c01b614269565b6128c8676ce6a4ff59071f5b60c01b614269565b6128dc679fd2e3ffb485017860c01b614269565b80600c90816128eb919061772c565b5061290067b366724b9a54042360c01b614269565b6129146764be8fe44f724cca60c01b614269565b7ff9c7803e94e0d3c02900d8a90893a6d5e90dd04d32a4cfe825520f82bf9f32f6816040516129439190615fb9565b60405180910390a150565b6000600a60149054906101000a900460ff16905090565b600061297b67a4cb645b1837006460c01b614269565b61298f676c79a10ad46ba6e160c01b614269565b6129a3676d46eae8bf5a28ba60c01b614269565b600e54905090565b6000806129b783614ee4565b9050600073ffffffffffffffffffffffffffffffffffffffff168173ffffffffffffffffffffffffffffffffffffffff1603612a28576040517f08c379a0000000000000000000000000000000000000000000000000000000008152600401612a1f9061784a565b60405180910390fd5b80915050919050565b612a4567cc69d5b6b093d16f60c01b614269565b612a4d61426c565b612a616750fdcf80b9a9bd2760c01b614269565b612a7567b36a63721b29cfc760c01b614269565b612a8967d00326f804f9403f60c01b614269565b612a9d6772155afef65974d560c01b614269565b612ab167ae4138b8bf7ab45460c01b614269565b6000600f60008381526020019081526020016000206000015411612b0a576040517f08c379a0000000000000000000000000000000000000000000000000000000008152600401612b0190616acf565b60405180910390fd5b612b1e67658fa5bc090c7b2e60c01b614269565b612b3267ae26da1963a96b4660c01b614269565b6001600f600083815260200190815260200160002060050160006101000a81548160ff021916908315150217905550612b7567c932bc6511dad4d160c01b614269565b612b8967ddb71709f6eb006960c01b614269565b807fb612d30e3c65a1caa935f7d17e7932c14e41c1410d52b8bc355f937b46e257f760405160405180910390a250565b60008073ffffffffffffffffffffffffffffffffffffffff168273ffffffffffffffffffffffffffffffffffffffff1603612c29576040517f08c379a0000000000000000000000000000000000000000000000000000000008152600401612c20906178dc565b60405180910390fd5b600360008373ffffffffffffffffffffffffffffffffffffffff1673ffffffffffffffffffffffffffffffffffffffff168152602001908152602001600020549050919050565b612c7861426c565b612c826000614f21565b565b6000612c9a671f5459ae9b63974960c01b614269565b612cae671de36e8351f5ac8460c01b614269565b612cc267ec96eeef84a2450f60c01b614269565b612cd667be79232425d3057560c01b614269565b82821015612d19576040517f08c379a0000000000000000000000000000000000000000000000000000000008152600401612d1090617948565b60405180910390fd5b612d2d679b1a61871066607860c01b614269565b612d416752d78e039913200c60c01b614269565b612d5567c64de6f328c61a6b60c01b614269565b60008383612d6391906172c5565b9050612d7967304821f563e86f5860c01b614269565b612d8d67fd0237897bbb63c160c01b614269565b6127106301e13380612d9f9190617036565b818688612dac9190617036565b612db69190617036565b612dc091906171e7565b915050949350505050565b6000612de167593c71f6b46a0c8f60c01b614269565b612df56702b1331b21753df860c01b614269565b612e09674056797eb0b9366b60c01b614269565b600d54905090565b612e2567318520143464aeac60c01b614269565b612e2d61426c565b612e4167a1b9ef6c0cf93cf060c01b614269565b612e55673424b7aa5ffde0be60c01b614269565b612e6967a633cb3220b73bfc60c01b614269565b612e7d677a2afc2474451f6e60c01b614269565b612e85614fe7565b565b7f000000000000000000000000000000000000000000000000000000000000000081565b6000600a60009054906101000a900473ffffffffffffffffffffffffffffffffffffffff16905090565b606060018054612ee490616b1e565b80601f0160208091040260200160405190810160405280929190818152602001828054612f1090616b1e565b8015612f5d5780601f10612f3257610100808354040283529160200191612f5d565b820191906000526020600020905b815481529060010190602001808311612f4057829003601f168201915b5050505050905090565b612f7b671fa5a89a13042cf560c01b614269565b612f83614470565b612f9767eeab086713f6a99360c01b614269565b612fab670dd7eaef5d26becd60c01b614269565b612fb36144ba565b612fc767dbba64d9eceea8c260c01b614269565b612fdb67cf7326b7bdb877f660c01b614269565b612fef6797eb7b58095ca7fe60c01b614269565b61300367a3ffd90c2be5354360c01b614269565b6000600f6000848152602001908152602001600020905061302e67cc4a243310d97b1c60c01b614269565b61304267a62ab68f7b47c04360c01b614269565b613056678b72030c4afc533960c01b614269565b600081600001541161309d576040517f08c379a000000000000000000000000000000000000000000000000000000000815260040161309490616acf565b60405180910390fd5b6130b167c4f84a181290590960c01b614269565b6130c567611a635ce8033a6360c01b614269565b6130d967c4986fd89d6aad7d60c01b614269565b6130ed67d151615b720522c260c01b614269565b8060050160009054906101000a900460ff1661313e576040517f08c379a0000000000000000000000000000000000000000000000000000000008152600401613135906179b4565b60405180910390fd5b613152676a3c0999b3419b7960c01b614269565b6131666751bf940295264f8e60c01b614269565b61317a678b5224119a92182b60c01b614269565b61318e67f0ee67c51a9da7fc60c01b614269565b80600201548210156131d5576040517f08c379a00000000000000000000000000000000000000000000000000000000081526004016131cc90617a20565b60405180910390fd5b6131e967755610a656ccfb4e60c01b614269565b6131fd677f1116d0400508eb60c01b614269565b61321167cb36343a07f8f90c60c01b614269565b6132256768beca97e9bf0b2360c01b614269565b6000816003015414801561324957506132486781d9295c3e3fc83460c01b614647565b5b80613274575080600301548211158015613273575061327267fcf59401b251ec0760c01b614647565b5b5b6132b3576040517f08c379a00000000000000000000000000000000000000000000000000000000081526004016132aa90617a8c565b60405180910390fd5b6132c767d2619eee40bf252b60c01b614269565b6132db67068b6c98417c9c1060c01b614269565b6132ef67c327cf32ec5501bd60c01b614269565b60007f000000000000000000000000000000000000000000000000000000000000000073ffffffffffffffffffffffffffffffffffffffff1663dd62ed3e33306040518363ffffffff1660e01b815260040161334c929190617aac565b602060405180830381865afa158015613369573d6000803e3d6000fd5b505050506040513d601f19601f8201168201806040525081019061338d9190617aea565b90506133a36780baf4e94e2730de60c01b614269565b6133b767fd07ebff3235da1160c01b614269565b6133cb670ae9ba76999d0a9160c01b614269565b8281101561340e576040517f08c379a000000000000000000000000000000000000000000000000000000000815260040161340590617b63565b60405180910390fd5b613422674e372c05a2aec99160c01b614269565b6134366713894d6755b23d8960c01b614269565b61344a6752da4ed87feb28ab60c01b614269565b7f000000000000000000000000000000000000000000000000000000000000000073ffffffffffffffffffffffffffffffffffffffff166323b872dd3330866040518463ffffffff1660e01b81526004016134a793929190617b83565b6020604051808303816000875af11580156134c6573d6000803e3d6000fd5b505050506040513d601f19601f820116820180604052508101906134ea9190617298565b506134ff678b8ae04de793f80660c01b614269565b61351367624065fae0423d0b60c01b614269565b6000600d600081548092919061352890617078565b919050559050613542670e3c201a0901d26d60c01b614269565b613556676061d592eee21fe760c01b614269565b600062015180846000015461356b9190617036565b426135769190616de6565b905061358c67d470341aa0df177b60c01b614269565b6040518061010001604052803373ffffffffffffffffffffffffffffffffffffffff1681526020018681526020018781526020018560010154815260200185600401548152602001428152602001828152602001600060038111156135f4576135f3616624565b5b8152506010600084815260200190815260200160002060008201518160000160006101000a81548173ffffffffffffffffffffffffffffffffffffffff021916908373ffffffffffffffffffffffffffffffffffffffff1602179055506020820151816001015560408201518160020155606082015181600301556080820151816004015560a0820151816005015560c0820151816006015560e08201518160070160006101000a81548160ff021916908360038111156136b8576136b7616624565b5b02179055509050506136d46713acc238c787a37360c01b614269565b6136e867e6c99718ecfc2d4560c01b614269565b6136f2338361477e565b6137066751f4d7b085e0db5760c01b614269565b61371a67bab8af848c22d31b60c01b614269565b3373ffffffffffffffffffffffffffffffffffffffff16827f185ace0d9e523c4cbc0c9ea9dafda0a1c93802430de1dd6d1313af2b3b16b26588888589600101548a60040154604051613771959493929190617bba565b60405180910390a35050505061378561499b565b5050565b613791615d77565b6137a567611a6ab07fb232e260c01b614269565b6137b9676d639fc3aa60217560c01b614269565b6137cd67d76dc62dea98080b60c01b614269565b60106000838152602001908152602001600020604051806101000160405290816000820160009054906101000a900473ffffffffffffffffffffffffffffffffffffffff1673ffffffffffffffffffffffffffffffffffffffff1673ffffffffffffffffffffffffffffffffffffffff1681526020016001820154815260200160028201548152602001600382015481526020016004820154815260200160058201548152602001600682015481526020016007820160009054906101000a900460ff1660038111156138a3576138a2616624565b5b60038111156138b5576138b4616624565b5b815250509050919050565b6138d26138cb6143af565b838361504a565b5050565b60106020528060005260406000206000915090508060000160009054906101000a900473ffffffffffffffffffffffffffffffffffffffff16908060010154908060020154908060030154908060040154908060050154908060060154908060070160009054906101000a900460ff16905088565b600f6020528060005260406000206000915090508060000154908060010154908060020154908060030154908060040154908060050160009054906101000a900460ff16905086565b6139a561399f6143af565b836149a5565b6139e4576040517f08c379a00000000000000000000000000000000000000000000000000000000081526004016139db90617198565b60405180910390fd5b6139f0848484846151b6565b50505050565b613a0a6798ca9e37906f689560c01b614269565b613a12614470565b613a2667109ca8f21940b53360c01b614269565b613a3a672b570f7c9b34474960c01b614269565b613a426144ba565b613a5667f9ec75b9a21531fd60c01b614269565b613a6a6744f507a1309159b960c01b614269565b613a7e67d2b6d1d368e8387c60c01b614269565b613a926755fc07031cd7285460c01b614269565b6000601060008381526020019081526020016000209050613abd678c6ca56b9cf8e3e260c01b614269565b613ad1675ac4ec846e224c8560c01b614269565b613ae56702bc0cc35536c50460c01b614269565b60006003811115613af957613af8616624565b5b8160070160009054906101000a900460ff166003811115613b1d57613b1c616624565b5b14613b5d576040517f08c379a0000000000000000000000000000000000000000000000000000000008152600401613b5490616d2b565b60405180910390fd5b613b7167786c50977067eacf60c01b614269565b613b85677c43b8e8aad53c9860c01b614269565b613b996715ae80c7d05e047360c01b614269565b613bad67806ffaa67badacd560c01b614269565b6203f4808160060154613bc09190616de6565b4211613c01576040517f08c379a0000000000000000000000000000000000000000000000000000000008152600401613bf890617c59565b60405180910390fd5b613c1567d64339e27365e4a960c01b614269565b613c2967707a0794fcade7d560c01b614269565b613c3d67a5f49b5f6ae9607c60c01b614269565b6000600f6000836002015481526020019081526020016000209050613c6c677197e941b279cfdc60c01b614269565b613c806725f612d2eee9fb9d60c01b614269565b613c9467afd8be381a6d771560c01b614269565b8060050160009054906101000a900460ff16613ce5576040517f08c379a0000000000000000000000000000000000000000000000000000000008152600401613cdc90617cc5565b60405180910390fd5b613cf9671c1230620489bdf660c01b614269565b613d0d672a48ac49ae35d74f60c01b614269565b613d21673868e503e47b280360c01b614269565b6000613d3f8360010154846003015485600501548660060154614509565b9050613d5567534843c17cc57c8a60c01b614269565b613d6967cda746305908a4a760c01b614269565b6000818460010154613d7b9190616de6565b9050613d91675e0df69fae276f1260c01b614269565b613da567dd42a5de8d4ba74c60c01b614269565b6000620151808460000154613dba9190617036565b42613dc59190616de6565b9050613ddb6724f085bdef89252d60c01b614269565b613def673413be3dc09005d360c01b614269565b6000600d6000815480929190613e0490617078565b919050559050613e1e6742b6779129c0628660c01b614269565b6040518061010001604052808760000160009054906101000a900473ffffffffffffffffffffffffffffffffffffffff1673ffffffffffffffffffffffffffffffffffffffff16815260200184815260200187600201548152602001876003015481526020018760040154815260200142815260200183815260200160006003811115613eae57613ead616624565b5b8152506010600083815260200190815260200160002060008201518160000160006101000a81548173ffffffffffffffffffffffffffffffffffffffff021916908373ffffffffffffffffffffffffffffffffffffffff1602179055506020820151816001015560408201518160020155606082015181600301556080820151816004015560a0820151816005015560c0820151816006015560e08201518160070160006101000a81548160ff02191690836003811115613f7257613f71616624565b5b0217905550905050613f8e6739445c47fd45a8be60c01b614269565b613fa2675e12fbf8005d75c760c01b614269565b613fd08660000160009054906101000a900473ffffffffffffffffffffffffffffffffffffffff1685614652565b613fe467786faa2330cd358260c01b614269565b60038660070160006101000a81548160ff0219169083600381111561400c5761400b616624565b5b02179055506140256763ff5f0a9016994460c01b614269565b61403967201122aa7b01151e60c01b614269565b6140678660000160009054906101000a900473ffffffffffffffffffffffffffffffffffffffff168261477e565b61407b6759029725e7f2f66660c01b614269565b61408f674e96440a0b0b8e1460c01b614269565b80877f78b6fc71c40d899094e4295bca975a4bc0aeac7356de4933255d769351b2a76485896002015460016040516140c9939291906170c0565b60405180910390a35050505050506140df61499b565b50565b60606140ed82614364565b60006140f7615212565b905060008151116141175760405180602001604052806000815250614142565b80614121846152e0565b604051602001614132929190617d21565b6040516020818303038152906040525b915050919050565b6301e1338081565b6000600560008473ffffffffffffffffffffffffffffffffffffffff1673ffffffffffffffffffffffffffffffffffffffff16815260200190815260200160002060008373ffffffffffffffffffffffffffffffffffffffff1673ffffffffffffffffffffffffffffffffffffffff16815260200190815260200160002060009054906101000a900460ff16905092915050565b6141ee61426c565b600073ffffffffffffffffffffffffffffffffffffffff168173ffffffffffffffffffffffffffffffffffffffff160361425d576040517f08c379a000000000000000000000000000000000000000000000000000000000815260040161425490617db7565b60405180910390fd5b61426681614f21565b50565b50565b6142746143af565b73ffffffffffffffffffffffffffffffffffffffff16614292612eab565b73ffffffffffffffffffffffffffffffffffffffff16146142e8576040517f08c379a00000000000000000000000000000000000000000000000000000000081526004016142df90617e23565b60405180910390fd5b565b60007f780e9d63000000000000000000000000000000000000000000000000000000007bffffffffffffffffffffffffffffffffffffffffffffffffffffffff1916827bffffffffffffffffffffffffffffffffffffffffffffffffffffffff1916148061435d575061435c826153ae565b5b9050919050565b61436d81615490565b6143ac576040517f08c379a00000000000000000000000000000000000000000000000000000000081526004016143a39061784a565b60405180910390fd5b50565b600033905090565b816004600083815260200190815260200160002060006101000a81548173ffffffffffffffffffffffffffffffffffffffff021916908373ffffffffffffffffffffffffffffffffffffffff160217905550808273ffffffffffffffffffffffffffffffffffffffff1661442a836129ab565b73ffffffffffffffffffffffffffffffffffffffff167f8c5be1e5ebec7d5bd14f71427d1e84f3dd0314c0f7b2291e5b200ac8c7c3b92560405160405180910390a45050565b61447861294e565b156144b8576040517f08c379a00000000000000000000000000000000000000000000000000000000081526004016144af90617e8f565b60405180910390fd5b565b6002600b54036144ff576040517f08c379a00000000000000000000000000000000000000000000000000000000081526004016144f690617efb565b60405180910390fd5b6002600b81905550565b600061451f67cc1e2470ad65ca6f60c01b614269565b61453367440e7edb9db09e1860c01b614269565b61454767098cc41f64d2219960c01b614269565b814210156145945761456367159a38dc37052cf460c01b614269565b6145776720514e09ba2e347660c01b614269565b61458b67c98ac50b25b0376960c01b614269565b6000905061463f565b6145a867da7c62bc6ec3165e60c01b614269565b6145bc67996245724a7fd09d60c01b614269565b6145d06707dab62ea997617c60c01b614269565b600083836145de91906172c5565b90506145f467a0b94cad33c028b460c01b614269565b61460867e56758f541ad92d460c01b614269565b6127106301e1338061461a9190617036565b8186886146279190617036565b6146319190617036565b61463b91906171e7565b9150505b949350505050565b600060019050919050565b61466667d12669af0c7b304c60c01b614269565b61467a6759e1efef6315727260c01b614269565b61468e67ff8151db10c685a660c01b614269565b6000811115614765576146ab673f1fb1a70c30f17860c01b614269565b6146bf6758121fb89bf1b40360c01b614269565b6146d36760e399ee5bac12cd60c01b614269565b7f000000000000000000000000000000000000000000000000000000000000000073ffffffffffffffffffffffffffffffffffffffff16631210aac282846040518363ffffffff1660e01b815260040161472e929190617f1b565b600060405180830381600087803b15801561474857600080fd5b505af115801561475c573d6000803e3d6000fd5b5050505061477a565b61477967adace293ddd082ca60c01b614269565b5b5050565b600073ffffffffffffffffffffffffffffffffffffffff168273ffffffffffffffffffffffffffffffffffffffff16036147ed576040517f08c379a00000000000000000000000000000000000000000000000000000000081526004016147e490617f90565b60405180910390fd5b6147f681615490565b15614836576040517f08c379a000000000000000000000000000000000000000000000000000000000815260040161482d90617ffc565b60405180910390fd5b6148446000838360016154d1565b61484d81615490565b1561488d576040517f08c379a000000000000000000000000000000000000000000000000000000000815260040161488490617ffc565b60405180910390fd5b6001600360008473ffffffffffffffffffffffffffffffffffffffff1673ffffffffffffffffffffffffffffffffffffffff16815260200190815260200160002060008282540192505081905550816002600083815260200190815260200160002060006101000a81548173ffffffffffffffffffffffffffffffffffffffff021916908373ffffffffffffffffffffffffffffffffffffffff160217905550808273ffffffffffffffffffffffffffffffffffffffff16600073ffffffffffffffffffffffffffffffffffffffff167fddf252ad1be2c89b69c2b068fc378daa952ba7f163c4a11628f55a4df523b3ef60405160405180910390a461499760008383600161551f565b5050565b6001600b81905550565b6000806149b1836129ab565b90508073ffffffffffffffffffffffffffffffffffffffff168473ffffffffffffffffffffffffffffffffffffffff1614806149f357506149f28185614152565b5b80614a3157508373ffffffffffffffffffffffffffffffffffffffff16614a1984610b56565b73ffffffffffffffffffffffffffffffffffffffff16145b91505092915050565b8273ffffffffffffffffffffffffffffffffffffffff16614a5a826129ab565b73ffffffffffffffffffffffffffffffffffffffff1614614ab0576040517f08c379a0000000000000000000000000000000000000000000000000000000008152600401614aa79061808e565b60405180910390fd5b600073ffffffffffffffffffffffffffffffffffffffff168273ffffffffffffffffffffffffffffffffffffffff1603614b1f576040517f08c379a0000000000000000000000000000000000000000000000000000000008152600401614b1690618120565b60405180910390fd5b614b2c83838360016154d1565b8273ffffffffffffffffffffffffffffffffffffffff16614b4c826129ab565b73ffffffffffffffffffffffffffffffffffffffff1614614ba2576040517f08c379a0000000000000000000000000000000000000000000000000000000008152600401614b999061808e565b60405180910390fd5b6004600082815260200190815260200160002060006101000a81549073ffffffffffffffffffffffffffffffffffffffff02191690556001600360008573ffffffffffffffffffffffffffffffffffffffff1673ffffffffffffffffffffffffffffffffffffffff168152602001908152602001600020600082825403925050819055506001600360008473ffffffffffffffffffffffffffffffffffffffff1673ffffffffffffffffffffffffffffffffffffffff16815260200190815260200160002060008282540192505081905550816002600083815260200190815260200160002060006101000a81548173ffffffffffffffffffffffffffffffffffffffff021916908373ffffffffffffffffffffffffffffffffffffffff160217905550808273ffffffffffffffffffffffffffffffffffffffff168473ffffffffffffffffffffffffffffffffffffffff167fddf252ad1be2c89b69c2b068fc378daa952ba7f163c4a11628f55a4df523b3ef60405160405180910390a4614d2e838383600161551f565b505050565b6000614d3e826129ab565b9050614d4e8160008460016154d1565b614d57826129ab565b90506004600083815260200190815260200160002060006101000a81549073ffffffffffffffffffffffffffffffffffffffff02191690556001600360008373ffffffffffffffffffffffffffffffffffffffff1673ffffffffffffffffffffffffffffffffffffffff168152602001908152602001600020600082825403925050819055506002600083815260200190815260200160002060006101000a81549073ffffffffffffffffffffffffffffffffffffffff021916905581600073ffffffffffffffffffffffffffffffffffffffff168273ffffffffffffffffffffffffffffffffffffffff167fddf252ad1be2c89b69c2b068fc378daa952ba7f163c4a11628f55a4df523b3ef60405160405180910390a4614e7d81600084600161551f565b5050565b614e89615525565b6000600a60146101000a81548160ff0219169083151502179055507f5db9ee0a495bf2e6ff9c91a7834c1ba4fdd244a5e8aa4e537bd38aeae4b073aa614ecd6143af565b604051614eda9190616049565b60405180910390a1565b60006002600083815260200190815260200160002060009054906101000a900473ffffffffffffffffffffffffffffffffffffffff169050919050565b6000600a60009054906101000a900473ffffffffffffffffffffffffffffffffffffffff16905081600a60006101000a81548173ffffffffffffffffffffffffffffffffffffffff021916908373ffffffffffffffffffffffffffffffffffffffff1602179055508173ffffffffffffffffffffffffffffffffffffffff168173ffffffffffffffffffffffffffffffffffffffff167f8be0079c531659141344cd1fd0a4f28419497f9722a3daafe3b4186f6b6457e060405160405180910390a35050565b614fef614470565b6001600a60146101000a81548160ff0219169083151502179055507f62e78cea01bee320cd4e420270b5ea74000d11b0c9f74754ebdbfc544b05a2586150336143af565b6040516150409190616049565b60405180910390a1565b8173ffffffffffffffffffffffffffffffffffffffff168373ffffffffffffffffffffffffffffffffffffffff16036150b8576040517f08c379a00000000000000000000000000000000000000000000000000000000081526004016150af9061818c565b60405180910390fd5b80600560008573ffffffffffffffffffffffffffffffffffffffff1673ffffffffffffffffffffffffffffffffffffffff16815260200190815260200160002060008473ffffffffffffffffffffffffffffffffffffffff1673ffffffffffffffffffffffffffffffffffffffff16815260200190815260200160002060006101000a81548160ff0219169083151502179055508173ffffffffffffffffffffffffffffffffffffffff168373ffffffffffffffffffffffffffffffffffffffff167f17307eab39ab6107e8899845ad3d59bd9653f200f220920489ca2b5937696c31836040516151a99190615f0e565b60405180910390a3505050565b6151c1848484614a3a565b6151cd8484848461556e565b61520c576040517f08c379a00000000000000000000000000000000000000000000000000000000081526004016152039061821e565b60405180910390fd5b50505050565b606061522867159ef13e2d3c836560c01b614269565b61523c67a7173af894b0e9bb60c01b614269565b6152506719294fc9e74beb8d60c01b614269565b600c805461525d90616b1e565b80601f016020809104026020016040519081016040528092919081815260200182805461528990616b1e565b80156152d65780601f106152ab576101008083540402835291602001916152d6565b820191906000526020600020905b8154815290600101906020018083116152b957829003601f168201915b5050505050905090565b6060600060016152ef846156f5565b01905060008167ffffffffffffffff81111561530e5761530d6163fe565b5b6040519080825280601f01601f1916602001820160405280156153405781602001600182028036833780820191505090505b509050600082602001820190505b6001156153a3578080600190039150507f3031323334353637383961626364656600000000000000000000000000000000600a86061a8153600a8581615397576153966171b8565b5b0494506000850361534e575b819350505050919050565b60007f80ac58cd000000000000000000000000000000000000000000000000000000007bffffffffffffffffffffffffffffffffffffffffffffffffffffffff1916827bffffffffffffffffffffffffffffffffffffffffffffffffffffffff1916148061547957507f5b5e139f000000000000000000000000000000000000000000000000000000007bffffffffffffffffffffffffffffffffffffffffffffffffffffffff1916827bffffffffffffffffffffffffffffffffffffffffffffffffffffffff1916145b80615489575061548882615848565b5b9050919050565b60008073ffffffffffffffffffffffffffffffffffffffff166154b283614ee4565b73ffffffffffffffffffffffffffffffffffffffff1614159050919050565b6154e567b9fef3059afb897260c01b614269565b6154f967c14c227a1be1b35560c01b614269565b61550d67c434e5a46c52e01360c01b614269565b615519848484846158b2565b50505050565b50505050565b61552d61294e565b61556c576040517f08c379a00000000000000000000000000000000000000000000000000000000081526004016155639061828a565b60405180910390fd5b565b600061558f8473ffffffffffffffffffffffffffffffffffffffff16615a10565b156156e8578373ffffffffffffffffffffffffffffffffffffffff1663150b7a026155b86143af565b8786866040518563ffffffff1660e01b81526004016155da94939291906182ff565b6020604051808303816000875af192505050801561561657506040513d601f19601f820116820180604052508101906156139190618360565b60015b615698573d8060008114615646576040519150601f19603f3d011682016040523d82523d6000602084013e61564b565b606091505b506000815103615690576040517f08c379a00000000000000000000000000000000000000000000000000000000081526004016156879061821e565b60405180910390fd5b805181602001fd5b63150b7a0260e01b7bffffffffffffffffffffffffffffffffffffffffffffffffffffffff1916817bffffffffffffffffffffffffffffffffffffffffffffffffffffffff1916149150506156ed565b600190505b949350505050565b600080600090507a184f03e93ff9f4daa797ed6e38ed64bf6a1f0100000000000000008310615753577a184f03e93ff9f4daa797ed6e38ed64bf6a1f0100000000000000008381615749576157486171b8565b5b0492506040810190505b6d04ee2d6d415b85acef81000000008310615790576d04ee2d6d415b85acef81000000008381615786576157856171b8565b5b0492506020810190505b662386f26fc1000083106157bf57662386f26fc1000083816157b5576157b46171b8565b5b0492506010810190505b6305f5e10083106157e8576305f5e10083816157de576157dd6171b8565b5b0492506008810190505b612710831061580d576127108381615803576158026171b8565b5b0492506004810190505b606483106158305760648381615826576158256171b8565b5b0492506002810190505b600a831061583f576001810190505b80915050919050565b60007f01ffc9a7000000000000000000000000000000000000000000000000000000007bffffffffffffffffffffffffffffffffffffffffffffffffffffffff1916827bffffffffffffffffffffffffffffffffffffffffffffffffffffffff1916149050919050565b6158be84848484615a33565b6001811115615902576040517f08c379a00000000000000000000000000000000000000000000000000000000081526004016158f9906183ff565b60405180910390fd5b6000829050600073ffffffffffffffffffffffffffffffffffffffff168573ffffffffffffffffffffffffffffffffffffffff16036159495761594481615a39565b615988565b8373ffffffffffffffffffffffffffffffffffffffff168573ffffffffffffffffffffffffffffffffffffffff1614615987576159868582615a82565b5b5b600073ffffffffffffffffffffffffffffffffffffffff168473ffffffffffffffffffffffffffffffffffffffff16036159ca576159c581615bef565b615a09565b8473ffffffffffffffffffffffffffffffffffffffff168473ffffffffffffffffffffffffffffffffffffffff1614615a0857615a078482615cc0565b5b5b5050505050565b6000808273ffffffffffffffffffffffffffffffffffffffff163b119050919050565b50505050565b6008805490506009600083815260200190815260200160002081905550600881908060018154018082558091505060019003906000526020600020016000909190919091505550565b60006001615a8f84612bb9565b615a9991906172c5565b9050600060076000848152602001908152602001600020549050818114615b7e576000600660008673ffffffffffffffffffffffffffffffffffffffff1673ffffffffffffffffffffffffffffffffffffffff168152602001908152602001600020600084815260200190815260200160002054905080600660008773ffffffffffffffffffffffffffffffffffffffff1673ffffffffffffffffffffffffffffffffffffffff168152602001908152602001600020600084815260200190815260200160002081905550816007600083815260200190815260200160002081905550505b6007600084815260200190815260200160002060009055600660008573ffffffffffffffffffffffffffffffffffffffff1673ffffffffffffffffffffffffffffffffffffffff16815260200190815260200160002060008381526020019081526020016000206000905550505050565b60006001600880549050615c0391906172c5565b9050600060096000848152602001908152602001600020549050600060088381548110615c3357615c326170f7565b5b906000526020600020015490508060088381548110615c5557615c546170f7565b5b906000526020600020018190555081600960008381526020019081526020016000208190555060096000858152602001908152602001600020600090556008805480615ca457615ca361841f565b5b6001900381819060005260206000200160009055905550505050565b6000615ccb83612bb9565b905081600660008573ffffffffffffffffffffffffffffffffffffffff1673ffffffffffffffffffffffffffffffffffffffff168152602001908152602001600020600083815260200190815260200160002081905550806007600084815260200190815260200160002081905550505050565b6040518060c0016040528060008152602001600081526020016000815260200160008152602001600081526020016000151581525090565b604051806101000160405280600073ffffffffffffffffffffffffffffffffffffffff16815260200160008152602001600081526020016000815260200160008152602001600081526020016000815260200160006003811115615dde57615ddd616624565b5b81525090565b6000604051905090565b600080fd5b600080fd5b6000819050919050565b615e0b81615df8565b8114615e1657600080fd5b50565b600081359050615e2881615e02565b92915050565b60008060408385031215615e4557615e44615dee565b5b6000615e5385828601615e19565b9250506020615e6485828601615e19565b9150509250929050565b60007fffffffff0000000000000000000000000000000000000000000000000000000082169050919050565b615ea381615e6e565b8114615eae57600080fd5b50565b600081359050615ec081615e9a565b92915050565b600060208284031215615edc57615edb615dee565b5b6000615eea84828501615eb1565b91505092915050565b60008115159050919050565b615f0881615ef3565b82525050565b6000602082019050615f236000830184615eff565b92915050565b600081519050919050565b600082825260208201905092915050565b60005b83811015615f63578082015181840152602081019050615f48565b60008484015250505050565b6000601f19601f8301169050919050565b6000615f8b82615f29565b615f958185615f34565b9350615fa5818560208601615f45565b615fae81615f6f565b840191505092915050565b60006020820190508181036000830152615fd38184615f80565b905092915050565b600060208284031215615ff157615ff0615dee565b5b6000615fff84828501615e19565b91505092915050565b600073ffffffffffffffffffffffffffffffffffffffff82169050919050565b600061603382616008565b9050919050565b61604381616028565b82525050565b600060208201905061605e600083018461603a565b92915050565b61606d81616028565b811461607857600080fd5b50565b60008135905061608a81616064565b92915050565b600080604083850312156160a7576160a6615dee565b5b60006160b58582860161607b565b92505060206160c685828601615e19565b9150509250929050565b6000602082840312156160e6576160e5615dee565b5b60006160f48482850161607b565b91505092915050565b600081519050919050565b600082825260208201905092915050565b6000819050602082019050919050565b61613281615df8565b82525050565b60006161448383616129565b60208301905092915050565b6000602082019050919050565b6000616168826160fd565b6161728185616108565b935061617d83616119565b8060005b838110156161ae5781516161958882616138565b97506161a083616150565b925050600181019050616181565b5085935050505092915050565b600060208201905081810360008301526161d5818461615d565b905092915050565b6161e681615df8565b82525050565b600060208201905061620160008301846161dd565b92915050565b6000806000606084860312156162205761621f615dee565b5b600061622e8682870161607b565b935050602061623f8682870161607b565b925050604061625086828701615e19565b9150509250925092565b61626381615ef3565b82525050565b60c08201600082015161627f6000850182616129565b5060208201516162926020850182616129565b5060408201516162a56040850182616129565b5060608201516162b86060850182616129565b5060808201516162cb6080850182616129565b5060a08201516162de60a085018261625a565b50505050565b600060c0820190506162f96000830184616269565b92915050565b6000819050919050565b600061632461631f61631a84616008565b6162ff565b616008565b9050919050565b600061633682616309565b9050919050565b60006163488261632b565b9050919050565b6163588161633d565b82525050565b6000602082019050616373600083018461634f565b92915050565b600080600080600060a0868803121561639557616394615dee565b5b60006163a388828901615e19565b95505060206163b488828901615e19565b94505060406163c588828901615e19565b93505060606163d688828901615e19565b92505060806163e788828901615e19565b9150509295509295909350565b600080fd5b600080fd5b7f4e487b7100000000000000000000000000000000000000000000000000000000600052604160045260246000fd5b61643682615f6f565b810181811067ffffffffffffffff82111715616455576164546163fe565b5b80604052505050565b6000616468615de4565b9050616474828261642d565b919050565b600067ffffffffffffffff821115616494576164936163fe565b5b61649d82615f6f565b9050602081019050919050565b82818337600083830152505050565b60006164cc6164c784616479565b61645e565b9050828152602081018484840111156164e8576164e76163f9565b5b6164f38482856164aa565b509392505050565b600082601f8301126165105761650f6163f4565b5b81356165208482602086016164b9565b91505092915050565b60006020828403121561653f5761653e615dee565b5b600082013567ffffffffffffffff81111561655d5761655c615df3565b5b616569848285016164fb565b91505092915050565b6000806000806080858703121561658c5761658b615dee565b5b600061659a87828801615e19565b94505060206165ab87828801615e19565b93505060406165bc87828801615e19565b92505060606165cd87828801615e19565b91505092959194509250565b60006165e48261632b565b9050919050565b6165f4816165d9565b82525050565b600060208201905061660f60008301846165eb565b92915050565b61661e81616028565b82525050565b7f4e487b7100000000000000000000000000000000000000000000000000000000600052602160045260246000fd5b6004811061666457616663616624565b5b50565b600081905061667582616653565b919050565b600061668582616667565b9050919050565b6166958161667a565b82525050565b610100820160008201516166b26000850182616615565b5060208201516166c56020850182616129565b5060408201516166d86040850182616129565b5060608201516166eb6060850182616129565b5060808201516166fe6080850182616129565b5060a082015161671160a0850182616129565b5060c082015161672460c0850182616129565b5060e082015161673760e085018261668c565b50505050565b600061010082019050616753600083018461669b565b92915050565b61676281615ef3565b811461676d57600080fd5b50565b60008135905061677f81616759565b92915050565b6000806040838503121561679c5761679b615dee565b5b60006167aa8582860161607b565b92505060206167bb85828601616770565b9150509250929050565b6167ce8161667a565b82525050565b6000610100820190506167ea600083018b61603a565b6167f7602083018a6161dd565b61680460408301896161dd565b61681160608301886161dd565b61681e60808301876161dd565b61682b60a08301866161dd565b61683860c08301856161dd565b61684560e08301846167c5565b9998505050505050505050565b600060c08201905061686760008301896161dd565b61687460208301886161dd565b61688160408301876161dd565b61688e60608301866161dd565b61689b60808301856161dd565b6168a860a0830184615eff565b979650505050505050565b600067ffffffffffffffff8211156168ce576168cd6163fe565b5b6168d782615f6f565b9050602081019050919050565b60006168f76168f2846168b3565b61645e565b905082815260208101848484011115616913576169126163f9565b5b61691e8482856164aa565b509392505050565b600082601f83011261693b5761693a6163f4565b5b813561694b8482602086016168e4565b91505092915050565b6000806000806080858703121561696e5761696d615dee565b5b600061697c8782880161607b565b945050602061698d8782880161607b565b935050604061699e87828801615e19565b925050606085013567ffffffffffffffff8111156169bf576169be615df3565b5b6169cb87828801616926565b91505092959194509250565b600080604083850312156169ee576169ed615dee565b5b60006169fc8582860161607b565b9250506020616a0d8582860161607b565b9150509250929050565b7f496e76616c696420415052000000000000000000000000000000000000000000600082015250565b6000616a4d600b83615f34565b9150616a5882616a17565b602082019050919050565b60006020820190508181036000830152616a7c81616a40565b9050919050565b7f506c616e20646f6573206e6f7420657869737400000000000000000000000000600082015250565b6000616ab9601383615f34565b9150616ac482616a83565b602082019050919050565b60006020820190508181036000830152616ae881616aac565b9050919050565b7f4e487b7100000000000000000000000000000000000000000000000000000000600052602260045260246000fd5b60006002820490506001821680616b3657607f821691505b602082108103616b4957616b48616aef565b5b50919050565b7f4552433732313a20617070726f76616c20746f2063757272656e74206f776e6560008201527f7200000000000000000000000000000000000000000000000000000000000000602082015250565b6000616bab602183615f34565b9150616bb682616b4f565b604082019050919050565b60006020820190508181036000830152616bda81616b9e565b9050919050565b7f4552433732313a20617070726f76652063616c6c6572206973206e6f7420746f60008201527f6b656e206f776e6572206f7220617070726f76656420666f7220616c6c000000602082015250565b6000616c3d603d83615f34565b9150616c4882616be1565b604082019050919050565b60006020820190508181036000830152616c6c81616c30565b9050919050565b7f4e6f74206f776e65720000000000000000000000000000000000000000000000600082015250565b6000616ca9600983615f34565b9150616cb482616c73565b602082019050919050565b60006020820190508181036000830152616cd881616c9c565b9050919050565b7f4e6f742061637469766500000000000000000000000000000000000000000000600082015250565b6000616d15600a83615f34565b9150616d2082616cdf565b602082019050919050565b60006020820190508181036000830152616d4481616d08565b9050919050565b7f43616e6e6f742072656e6577206265666f7265206d6174757269747900000000600082015250565b6000616d81601c83615f34565b9150616d8c82616d4b565b602082019050919050565b60006020820190508181036000830152616db081616d74565b9050919050565b7f4e487b7100000000000000000000000000000000000000000000000000000000600052601160045260246000fd5b6000616df182615df8565b9150616dfc83615df8565b9250828201905080821115616e1457616e13616db7565b5b92915050565b7f557365206175746f2d72656e6577000000000000000000000000000000000000600082015250565b6000616e50600e83615f34565b9150616e5b82616e1a565b602082019050919050565b60006020820190508181036000830152616e7f81616e43565b9050919050565b7f4e657720706c616e20646f6573206e6f74206578697374000000000000000000600082015250565b6000616ebc601783615f34565b9150616ec782616e86565b602082019050919050565b60006020820190508181036000830152616eeb81616eaf565b9050919050565b7f4e657720706c616e2069732064697361626c6564000000000000000000000000600082015250565b6000616f28601483615f34565b9150616f3382616ef2565b602082019050919050565b60006020820190508181036000830152616f5781616f1b565b9050919050565b7f4e6577207072696e636970616c2062656c6f77206d696e000000000000000000600082015250565b6000616f94601783615f34565b9150616f9f82616f5e565b602082019050919050565b60006020820190508181036000830152616fc381616f87565b9050919050565b7f41626f7665206d61780000000000000000000000000000000000000000000000600082015250565b6000617000600983615f34565b915061700b82616fca565b602082019050919050565b6000602082019050818103600083015261702f81616ff3565b9050919050565b600061704182615df8565b915061704c83615df8565b925082820261705a81615df8565b9150828204841483151761707157617070616db7565b5b5092915050565b600061708382615df8565b91507fffffffffffffffffffffffffffffffffffffffffffffffffffffffffffffffff82036170b5576170b4616db7565b5b600182019050919050565b60006060820190506170d560008301866161dd565b6170e260208301856161dd565b6170ef6040830184615eff565b949350505050565b7f4e487b7100000000000000000000000000000000000000000000000000000000600052603260045260246000fd5b7f4552433732313a2063616c6c6572206973206e6f7420746f6b656e206f776e6560008201527f72206f7220617070726f76656400000000000000000000000000000000000000602082015250565b6000617182602d83615f34565b915061718d82617126565b604082019050919050565b600060208201905081810360008301526171b181617175565b9050919050565b7f4e487b7100000000000000000000000000000000000000000000000000000000600052601260045260246000fd5b60006171f282615df8565b91506171fd83615df8565b92508261720d5761720c6171b8565b5b828204905092915050565b60008151905061722781616064565b92915050565b60006020828403121561724357617242615dee565b5b600061725184828501617218565b91505092915050565b600060408201905061726f600083018561603a565b61727c60208301846161dd565b9392505050565b60008151905061729281616759565b92915050565b6000602082840312156172ae576172ad615dee565b5b60006172bc84828501617283565b91505092915050565b60006172d082615df8565b91506172db83615df8565b92508282039050818111156172f3576172f2616db7565b5b92915050565b7f455243373231456e756d657261626c653a206f776e657220696e646578206f7560008201527f74206f6620626f756e6473000000000000000000000000000000000000000000602082015250565b6000617355602b83615f34565b9150617360826172f9565b604082019050919050565b6000602082019050818103600083015261738481617348565b9050919050565b7f496e76616c69642074656e6f7200000000000000000000000000000000000000600082015250565b60006173c1600d83615f34565b91506173cc8261738b565b602082019050919050565b600060208201905081810360008301526173f0816173b4565b9050919050565b7f496e76616c6964206465706f7369742072616e67650000000000000000000000600082015250565b600061742d601583615f34565b9150617438826173f7565b602082019050919050565b6000602082019050818103600083015261745c81617420565b9050919050565b7f496e76616c69642070656e616c74790000000000000000000000000000000000600082015250565b6000617499600f83615f34565b91506174a482617463565b602082019050919050565b600060208201905081810360008301526174c88161748c565b9050919050565b60006040820190506174e460008301856161dd565b6174f160208301846161dd565b9392505050565b7f455243373231456e756d657261626c653a20676c6f62616c20696e646578206f60008201527f7574206f6620626f756e64730000000000000000000000000000000000000000602082015250565b6000617554602c83615f34565b915061755f826174f8565b604082019050919050565b6000602082019050818103600083015261758381617547565b9050919050565b60008190508160005260206000209050919050565b60006020601f8301049050919050565b600082821b905092915050565b6000600883026175ec7fffffffffffffffffffffffffffffffffffffffffffffffffffffffffffffffff826175af565b6175f686836175af565b95508019841693508086168417925050509392505050565b600061762961762461761f84615df8565b6162ff565b615df8565b9050919050565b6000819050919050565b6176438361760e565b61765761764f82617630565b8484546175bc565b825550505050565b600090565b61766c61765f565b61767781848461763a565b505050565b5b8181101561769b57617690600082617664565b60018101905061767d565b5050565b601f8211156176e0576176b18161758a565b6176ba8461759f565b810160208510156176c9578190505b6176dd6176d58561759f565b83018261767c565b50505b505050565b600082821c905092915050565b6000617703600019846008026176e5565b1980831691505092915050565b600061771c83836176f2565b9150826002028217905092915050565b61773582615f29565b67ffffffffffffffff81111561774e5761774d6163fe565b5b6177588254616b1e565b61776382828561769f565b600060209050601f8311600181146177965760008415617784578287015190505b61778e8582617710565b8655506177f6565b601f1984166177a48661758a565b60005b828110156177cc578489015182556001820191506020850194506020810190506177a7565b868310156177e957848901516177e5601f8916826176f2565b8355505b6001600288020188555050505b505050505050565b7f4552433732313a20696e76616c696420746f6b656e2049440000000000000000600082015250565b6000617834601883615f34565b915061783f826177fe565b602082019050919050565b6000602082019050818103600083015261786381617827565b9050919050565b7f4552433732313a2061646472657373207a65726f206973206e6f74206120766160008201527f6c6964206f776e65720000000000000000000000000000000000000000000000602082015250565b60006178c6602983615f34565b91506178d18261786a565b604082019050919050565b600060208201905081810360008301526178f5816178b9565b9050919050565b7f496e76616c69642074696d652072616e67650000000000000000000000000000600082015250565b6000617932601283615f34565b915061793d826178fc565b602082019050919050565b6000602082019050818103600083015261796181617925565b9050919050565b7f506c616e2069732064697361626c656400000000000000000000000000000000600082015250565b600061799e601083615f34565b91506179a982617968565b602082019050919050565b600060208201905081810360008301526179cd81617991565b9050919050565b7f42656c6f77206d696e206465706f736974000000000000000000000000000000600082015250565b6000617a0a601183615f34565b9150617a15826179d4565b602082019050919050565b60006020820190508181036000830152617a39816179fd565b9050919050565b7f41626f7665206d6178206465706f736974000000000000000000000000000000600082015250565b6000617a76601183615f34565b9150617a8182617a40565b602082019050919050565b60006020820190508181036000830152617aa581617a69565b9050919050565b6000604082019050617ac1600083018561603a565b617ace602083018461603a565b9392505050565b600081519050617ae481615e02565b92915050565b600060208284031215617b0057617aff615dee565b5b6000617b0e84828501617ad5565b91505092915050565b7f496e73756666696369656e7420616c6c6f77616e636500000000000000000000600082015250565b6000617b4d601683615f34565b9150617b5882617b17565b602082019050919050565b60006020820190508181036000830152617b7c81617b40565b9050919050565b6000606082019050617b98600083018661603a565b617ba5602083018561603a565b617bb260408301846161dd565b949350505050565b600060a082019050617bcf60008301886161dd565b617bdc60208301876161dd565b617be960408301866161dd565b617bf660608301856161dd565b617c0360808301846161dd565b9695505050505050565b7f477261636520706572696f64206e6f7420656e64656400000000000000000000600082015250565b6000617c43601683615f34565b9150617c4e82617c0d565b602082019050919050565b60006020820190508181036000830152617c7281617c36565b9050919050565b7f4f726967696e616c20706c616e2064697361626c656400000000000000000000600082015250565b6000617caf601683615f34565b9150617cba82617c79565b602082019050919050565b60006020820190508181036000830152617cde81617ca2565b9050919050565b600081905092915050565b6000617cfb82615f29565b617d058185617ce5565b9350617d15818560208601615f45565b80840191505092915050565b6000617d2d8285617cf0565b9150617d398284617cf0565b91508190509392505050565b7f4f776e61626c653a206e6577206f776e657220697320746865207a65726f206160008201527f6464726573730000000000000000000000000000000000000000000000000000602082015250565b6000617da1602683615f34565b9150617dac82617d45565b604082019050919050565b60006020820190508181036000830152617dd081617d94565b9050919050565b7f4f776e61626c653a2063616c6c6572206973206e6f7420746865206f776e6572600082015250565b6000617e0d602083615f34565b9150617e1882617dd7565b602082019050919050565b60006020820190508181036000830152617e3c81617e00565b9050919050565b7f5061757361626c653a2070617573656400000000000000000000000000000000600082015250565b6000617e79601083615f34565b9150617e8482617e43565b602082019050919050565b60006020820190508181036000830152617ea881617e6c565b9050919050565b7f5265656e7472616e637947756172643a207265656e7472616e742063616c6c00600082015250565b6000617ee5601f83615f34565b9150617ef082617eaf565b602082019050919050565b60006020820190508181036000830152617f1481617ed8565b9050919050565b6000604082019050617f3060008301856161dd565b617f3d602083018461603a565b9392505050565b7f4552433732313a206d696e7420746f20746865207a65726f2061646472657373600082015250565b6000617f7a602083615f34565b9150617f8582617f44565b602082019050919050565b60006020820190508181036000830152617fa981617f6d565b9050919050565b7f4552433732313a20746f6b656e20616c7265616479206d696e74656400000000600082015250565b6000617fe6601c83615f34565b9150617ff182617fb0565b602082019050919050565b6000602082019050818103600083015261801581617fd9565b9050919050565b7f4552433732313a207472616e736665722066726f6d20696e636f72726563742060008201527f6f776e6572000000000000000000000000000000000000000000000000000000602082015250565b6000618078602583615f34565b91506180838261801c565b604082019050919050565b600060208201905081810360008301526180a78161806b565b9050919050565b7f4552433732313a207472616e7366657220746f20746865207a65726f2061646460008201527f7265737300000000000000000000000000000000000000000000000000000000602082015250565b600061810a602483615f34565b9150618115826180ae565b604082019050919050565b60006020820190508181036000830152618139816180fd565b9050919050565b7f4552433732313a20617070726f766520746f2063616c6c657200000000000000600082015250565b6000618176601983615f34565b915061818182618140565b602082019050919050565b600060208201905081810360008301526181a581618169565b9050919050565b7f4552433732313a207472616e7366657220746f206e6f6e20455243373231526560008201527f63656976657220696d706c656d656e7465720000000000000000000000000000602082015250565b6000618208603283615f34565b9150618213826181ac565b604082019050919050565b60006020820190508181036000830152618237816181fb565b9050919050565b7f5061757361626c653a206e6f7420706175736564000000000000000000000000600082015250565b6000618274601483615f34565b915061827f8261823e565b602082019050919050565b600060208201905081810360008301526182a381618267565b9050919050565b600081519050919050565b600082825260208201905092915050565b60006182d1826182aa565b6182db81856182b5565b93506182eb818560208601615f45565b6182f481615f6f565b840191505092915050565b6000608082019050618314600083018761603a565b618321602083018661603a565b61832e60408301856161dd565b818103606083015261834081846182c6565b905095945050505050565b60008151905061835a81615e9a565b92915050565b60006020828403121561837657618375615dee565b5b60006183848482850161834b565b91505092915050565b7f455243373231456e756d657261626c653a20636f6e736563757469766520747260008201527f616e7366657273206e6f7420737570706f727465640000000000000000000000602082015250565b60006183e9603583615f34565b91506183f48261838d565b604082019050919050565b60006020820190508181036000830152618418816183dc565b9050919050565b7f4e487b7100000000000000000000000000000000000000000000000000000000600052603160045260246000fdfea2646970667358221220a2724d78f3ad0ae31af7a32a660e7a2a1808eb8d258dd8d40b4fe757792a5e5864736f6c63430008140033",
  "linkReferences": {},
  "deployedLinkReferences": {}
}