{
  "_format": "hh-sol-artifact-1",
  "contractName": "VaultManager",
  "sourceName": "contracts/VaultManager.sol",
  "abi": [
    {
      "inputs": [
        {
          "internalType": "address",
          "name": "_usdc",
          "type": "address"
        },
        {
          "internalType": "address",
          "name": "_admin",
          "type": "address"
        },
        {
          "internalType": "address",
          "name": "_feeReceiver",
          "type": "address"
        }
      ],
      "stateMutability": "nonpayable",
      "type": "constructor"
    },
    {
      "anonymous": false,
      "inputs": [
        {
          "indexed": true,
          "internalType": "address",
          "name": "newFeeReceiver",
          "type": "address"
        }
      ],
      "name": "FeeReceiverSet",
      "type": "event"
    },
    {
      "anonymous": false,
      "inputs": [
        {
          "indexed": true,
          "internalType": "address",
          "name": "recipient",
          "type": "address"
        },
        {
          "indexed": false,
          "internalType": "uint256",
          "name": "amount",
          "type": "uint256"
        }
      ],
      "name": "InterestPaid",
      "type": "event"
    },
    {
      "anonymous": false,
      "inputs": [
        {
          "indexed": false,
          "internalType": "address",
          "name": "account",
          "type": "address"
        }
      ],
      "name": "Paused",
      "type": "event"
    },
    {
      "anonymous": false,
      "inputs": [
        {
          "indexed": true,
          "internalType": "bytes32",
          "name": "role",
          "type": "bytes32"
        },
        {
          "indexed": true,
          "internalType": "bytes32",
          "name": "previousAdminRole",
          "type": "bytes32"
        },
        {
          "indexed": true,
          "internalType": "bytes32",
          "name": "newAdminRole",
          "type": "bytes32"
        }
      ],
      "name": "RoleAdminChanged",
      "type": "event"
    },
    {
      "anonymous": false,
      "inputs": [
        {
          "indexed": true,
          "internalType": "bytes32",
          "name": "role",
          "type": "bytes32"
        },
        {
          "indexed": true,
          "internalType": "address",
          "name": "account",
          "type": "address"
        },
        {
          "indexed": true,
          "internalType": "address",
          "name": "sender",
          "type": "address"
        }
      ],
      "name": "RoleGranted",
      "type": "event"
    },
    {
      "anonymous": false,
      "inputs": [
        {
          "indexed": true,
          "internalType": "bytes32",
          "name": "role",
          "type": "bytes32"
        },
        {
          "indexed": true,
          "internalType": "address",
          "name": "account",
          "type": "address"
        },
        {
          "indexed": true,
          "internalType": "address",
          "name": "sender",
          "type": "address"
        }
      ],
      "name": "RoleRevoked",
      "type": "event"
    },
    {
      "anonymous": false,
      "inputs": [
        {
          "indexed": false,
          "internalType": "address",
          "name": "account",
          "type": "address"
        }
      ],
      "name": "Unpaused",
      "type": "event"
    },
    {
      "anonymous": false,
      "inputs": [
        {
          "indexed": true,
          "internalType": "address",
          "name": "funder",
          "type": "address"
        },
        {
          "indexed": false,
          "internalType": "uint256",
          "name": "amount",
          "type": "uint256"
        }
      ],
      "name": "VaultFunded",
      "type": "event"
    },
    {
      "anonymous": false,
      "inputs": [
        {
          "indexed": true,
          "internalType": "address",
          "name": "manager",
          "type": "address"
        }
      ],
      "name": "VaultManagerRoleGranted",
      "type": "event"
    },
    {
      "anonymous": false,
      "inputs": [
        {
          "indexed": true,
          "internalType": "address",
          "name": "recipient",
          "type": "address"
        },
        {
          "indexed": false,
          "internalType": "uint256",
          "name": "amount",
          "type": "uint256"
        }
      ],
      "name": "VaultWithdrawn",
      "type": "event"
    },
    {
      "inputs": [],
      "name": "DEFAULT_ADMIN_ROLE",
      "outputs": [
        {
          "internalType": "bytes32",
          "name": "",
          "type": "bytes32"
        }
      ],
      "stateMutability": "view",
      "type": "function"
    },
    {
      "inputs": [],
      "name": "PAUSER_ROLE",
      "outputs": [
        {
          "internalType": "bytes32",
          "name": "",
          "type": "bytes32"
        }
      ],
      "stateMutability": "view",
      "type": "function"
    },
    {
      "inputs": [],
      "name": "VAULT_MANAGER_ROLE",
      "outputs": [
        {
          "internalType": "bytes32",
          "name": "",
          "type": "bytes32"
        }
      ],
      "stateMutability": "view",
      "type": "function"
    },
    {
      "inputs": [],
      "name": "availableBalance",
      "outputs": [
        {
          "internalType": "uint256",
          "name": "",
          "type": "uint256"
        }
      ],
      "stateMutability": "view",
      "type": "function"
    },
    {
      "inputs": [],
      "name": "feeReceiver",
      "outputs": [
        {
          "internalType": "address",
          "name": "",
          "type": "address"
        }
      ],
      "stateMutability": "view",
      "type": "function"
    },
    {
      "inputs": [
        {
          "internalType": "uint256",
          "name": "amount",
          "type": "uint256"
        }
      ],
      "name": "fundVault",
      "outputs": [],
      "stateMutability": "nonpayable",
      "type": "function"
    },
    {
      "inputs": [
        {
          "internalType": "bytes32",
          "name": "role",
          "type": "bytes32"
        }
      ],
      "name": "getRoleAdmin",
      "outputs": [
        {
          "internalType": "bytes32",
          "name": "",
          "type": "bytes32"
        }
      ],
      "stateMutability": "view",
      "type": "function"
    },
    {
      "inputs": [
        {
          "internalType": "bytes32",
          "name": "role",
          "type": "bytes32"
        },
        {
          "internalType": "address",
          "name": "account",
          "type": "address"
        }
      ],
      "name": "grantRole",
      "outputs": [],
      "stateMutability": "nonpayable",
      "type": "function"
    },
    {
      "inputs": [
        {
          "internalType": "address",
          "name": "_manager",
          "type": "address"
        }
      ],
      "name": "grantVaultManagerRole",
      "outputs": [],
      "stateMutability": "nonpayable",
      "type": "function"
    },
    {
      "inputs": [
        {
          "internalType": "bytes32",
          "name": "role",
          "type": "bytes32"
        },
        {
          "internalType": "address",
          "name": "account",
          "type": "address"
        }
      ],
      "name": "hasRole",
      "outputs": [
        {
          "internalType": "bool",
          "name": "",
          "type": "bool"
        }
      ],
      "stateMutability": "view",
      "type": "function"
    },
    {
      "inputs": [],
      "name": "pause",
      "outputs": [],
      "stateMutability": "nonpayable",
      "type": "function"
    },
    {
      "inputs": [],
      "name": "paused",
      "outputs": [
        {
          "internalType": "bool",
          "name": "",
          "type": "bool"
        }
      ],
      "stateMutability": "view",
      "type": "function"
    },
    {
      "inputs": [
        {
          "internalType": "bytes32",
          "name": "role",
          "type": "bytes32"
        },
        {
          "internalType": "address",
          "name": "account",
          "type": "address"
        }
      ],
      "name": "renounceRole",
      "outputs": [],
      "stateMutability": "nonpayable",
      "type": "function"
    },
    {
      "inputs": [
        {
          "internalType": "bytes32",
          "name": "role",
          "type": "bytes32"
        },
        {
          "internalType": "address",
          "name": "account",
          "type": "address"
        }
      ],
      "name": "revokeRole",
      "outputs": [],
      "stateMutability": "nonpayable",
      "type": "function"
    },
    {
      "inputs": [
        {
          "internalType": "address",
          "name": "_feeReceiver",
          "type": "address"
        }
      ],
      "name": "setFeeReceiver",
      "outputs": [],
      "stateMutability": "nonpayable",
      "type": "function"
    },
    {
      "inputs": [
        {
          "internalType": "bytes4",
          "name": "interfaceId",
          "type": "bytes4"
        }
      ],
      "name": "supportsInterface",
      "outputs": [
        {
          "internalType": "bool",
          "name": "",
          "type": "bool"
        }
      ],
      "stateMutability": "view",
      "type": "function"
    },
    {
      "inputs": [],
      "name": "totalInterestWithdrawn",
      "outputs": [
        {
          "internalType": "uint256",
          "name": "",
          "type": "uint256"
        }
      ],
      "stateMutability": "view",
      "type": "function"
    },
    {
      "inputs": [],
      "name": "unpause",
      "outputs": [],
      "stateMutability": "nonpayable",
      "type": "function"
    },
    {
      "inputs": [],
      "name": "usdc",
      "outputs": [
        {
          "internalType": "contract IERC20",
          "name": "",
          "type": "address"
        }
      ],
      "stateMutability": "view",
      "type": "function"
    },
    {
      "inputs": [
        {
          "internalType": "uint256",
          "name": "amount",
          "type": "uint256"
        },
        {
          "internalType": "address",
          "name": "recipient",
          "type": "address"
        }
      ],
      "name": "withdrawInterest",
      "outputs": [],
      "stateMutability": "nonpayable",
      "type": "function"
    },
    {
      "inputs": [
        {
          "internalType": "uint256",
          "name": "amount",
          "type": "uint256"
        }
      ],
      "name": "withdrawVault",
      "outputs": [],
      "stateMutability": "nonpayable",
      "type": "function"
    }
  ],
  "bytecode": "0x60a06040523480156200001157600080fd5b50604051620035a0380380620035a0833981810160405281019062000037919062000577565b6000600160006101000a81548160ff02191690831515021790555060016002819055506200007667050e84638c3dc87160c01b620003a760201b60201c565b620000926747ecf2a2bb0e6faf60c01b620003a760201b60201c565b620000ae6786745f629023299e60c01b620003a760201b60201c565b620000ca6727ca465ec74ddedb60c01b620003a760201b60201c565b600073ffffffffffffffffffffffffffffffffffffffff168373ffffffffffffffffffffffffffffffffffffffff16036200013c576040517f08c379a0000000000000000000000000000000000000000000000000000000008152600401620001339062000634565b60405180910390fd5b6200015867a9bd06bcef0889a960c01b620003a760201b60201c565b6200017467dea9f366937e87c260c01b620003a760201b60201c565b62000190671cf8529c4298cec360c01b620003a760201b60201c565b620001ac677d9c0f7724c7c6ff60c01b620003a760201b60201c565b600073ffffffffffffffffffffffffffffffffffffffff168273ffffffffffffffffffffffffffffffffffffffff16036200021e576040517f08c379a00000000000000000000000000000000000000000000000000000000081526004016200021590620006a6565b60405180910390fd5b6200023a6708c46df2e9f8573060c01b620003a760201b60201c565b620002566714374af37371a48e60c01b620003a760201b60201c565b8273ffffffffffffffffffffffffffffffffffffffff1660808173ffffffffffffffffffffffffffffffffffffffff1681525050620002a667357016c1c2d1395760c01b620003a760201b60201c565b80600360006101000a81548173ffffffffffffffffffffffffffffffffffffffff021916908373ffffffffffffffffffffffffffffffffffffffff16021790555062000303672a5f8bf9cc4f00fc60c01b620003a760201b60201c565b6200031f67388d050123e136ea60c01b620003a760201b60201c565b620003346000801b83620003aa60201b60201c565b620003506785a6d38587ce5c1a60c01b620003a760201b60201c565b6200036c67a5d01f1edbe5218d60c01b620003a760201b60201c565b6200039e7f65d7a28e3265b37a6474929f336521b332c1681b933f6cb9f3376673440d862a83620003aa60201b60201c565b505050620006c8565b50565b620003bc82826200049b60201b60201c565b6200049757600160008084815260200190815260200160002060000160008373ffffffffffffffffffffffffffffffffffffffff1673ffffffffffffffffffffffffffffffffffffffff16815260200190815260200160002060006101000a81548160ff0219169083151502179055506200043c6200050560201b60201c565b73ffffffffffffffffffffffffffffffffffffffff168173ffffffffffffffffffffffffffffffffffffffff16837f2f8788117e7eff1d82e926ec794901d17c78024a50270940304540a733656f0d60405160405180910390a45b5050565b600080600084815260200190815260200160002060000160008373ffffffffffffffffffffffffffffffffffffffff1673ffffffffffffffffffffffffffffffffffffffff16815260200190815260200160002060009054906101000a900460ff16905092915050565b600033905090565b600080fd5b600073ffffffffffffffffffffffffffffffffffffffff82169050919050565b60006200053f8262000512565b9050919050565b620005518162000532565b81146200055d57600080fd5b50565b600081519050620005718162000546565b92915050565b6000806000606084860312156200059357620005926200050d565b5b6000620005a38682870162000560565b9350506020620005b68682870162000560565b9250506040620005c98682870162000560565b9150509250925092565b600082825260208201905092915050565b7f496e76616c696420555344432061646472657373000000000000000000000000600082015250565b60006200061c601483620005d3565b91506200062982620005e4565b602082019050919050565b600060208201905081810360008301526200064f816200060d565b9050919050565b7f496e76616c69642061646d696e20616464726573730000000000000000000000600082015250565b60006200068e601583620005d3565b91506200069b8262000656565b602082019050919050565b60006020820190508181036000830152620006c1816200067f565b9050919050565b608051612ea0620007006000396000818161073701528181610a8c01528181610cce01528181610f29015261126d0152612ea06000f3fe608060405234801561001057600080fd5b50600436106101375760003560e01c80638456cb59116100b8578063b3f006741161007c578063b3f0067414610302578063b40afc1c14610320578063d547741f1461033c578063e386bdd714610358578063e63ab1e914610376578063efdcd9741461039457610137565b80638456cb591461027057806391d148541461027a578063a217fddf146102aa578063ab2f0e51146102c8578063abe73ef5146102e657610137565b806336568abe116100ff57806336568abe146101f05780633e413bee1461020c5780633f4ba83a1461022a5780635c975abb146102345780635e5a24a41461025257610137565b806301ffc9a71461013c5780631210aac21461016c578063248a9ca3146101885780632cb3b6c4146101b85780632f2ff15d146101d4575b600080fd5b61015660048036038101906101519190612045565b6103b0565b604051610163919061208d565b60405180910390f35b6101866004803603810190610181919061213c565b61042a565b005b6101a2600480360381019061019d91906121b2565b6107fe565b6040516101af91906121ee565b60405180910390f35b6101d260048036038101906101cd9190612209565b61081d565b005b6101ee60048036038101906101e99190612236565b6109e6565b005b61020a60048036038101906102059190612236565b610a07565b005b610214610a8a565b60405161022191906122d5565b60405180910390f35b610232610aae565b005b61023c610b47565b604051610249919061208d565b60405180910390f35b61025a610b5e565b60405161026791906121ee565b60405180910390f35b610278610b82565b005b610294600480360381019061028f9190612236565b610c1b565b6040516102a1919061208d565b60405180910390f35b6102b2610c85565b6040516102bf91906121ee565b60405180910390f35b6102d0610c8c565b6040516102dd91906122ff565b60405180910390f35b61030060048036038101906102fb919061231a565b610ded565b005b61030a610fe8565b6040516103179190612356565b60405180910390f35b61033a6004803603810190610335919061231a565b61100e565b005b61035660048036038101906103519190612236565b611334565b005b610360611355565b60405161036d91906122ff565b60405180910390f35b61037e61135b565b60405161038b91906121ee565b60405180910390f35b6103ae60048036038101906103a99190612209565b61137f565b005b60007f7965db0b000000000000000000000000000000000000000000000000000000007bffffffffffffffffffffffffffffffffffffffffffffffffffffffff1916827bffffffffffffffffffffffffffffffffffffffffffffffffffffffff1916148061042357506104228261154b565b5b9050919050565b61043e67073f108f3841460260c01b6115b5565b7fd1473398bb66596de5d1ea1fc8e303ff2ac23265adc9144b1b52065dc4f0934b610468816115b8565b61047c67c68ba1e0cf7ebeab60c01b6115b5565b610490677ed00b98dad22bbd60c01b6115b5565b6104986115cc565b6104ac67cb5c8e204730c67260c01b6115b5565b6104c067f999faaedeb5441b60c01b6115b5565b6104c8611616565b6104dc67781c4208490571e760c01b6115b5565b6104f067e44a861eb872696260c01b6115b5565b61050467966a243fa034671760c01b6115b5565b6105186726f50db62011950060c01b6115b5565b61052c6733201cc0553098e360c01b6115b5565b6000831161056f576040517f08c379a0000000000000000000000000000000000000000000000000000000008152600401610566906123ce565b60405180910390fd5b61058367021d028101c65c7560c01b6115b5565b610597678d822036892c412f60c01b6115b5565b6105ab67461e1aa9ed9d216f60c01b6115b5565b6105bf6740ac14501d23dcfa60c01b6115b5565b600073ffffffffffffffffffffffffffffffffffffffff168273ffffffffffffffffffffffffffffffffffffffff160361062e576040517f08c379a00000000000000000000000000000000000000000000000000000000081526004016106259061243a565b60405180910390fd5b61064267423efe91c16c04a460c01b6115b5565b61065667bd635d001940efd160c01b6115b5565b61066a67712d8fbd589090f060c01b6115b5565b61067e67a8d3a96669058a6b60c01b6115b5565b82610687610c8c565b10156106c8576040517f08c379a00000000000000000000000000000000000000000000000000000000081526004016106bf906124cc565b60405180910390fd5b6106dc67d4e8199a090c812360c01b6115b5565b6106f067018de861d7097a0560c01b6115b5565b8260046000828254610702919061251b565b9250508190555061071c666130d78a59a79b60c01b6115b5565b61073067f15b815a51b6256260c01b6115b5565b61077b82847f000000000000000000000000000000000000000000000000000000000000000073ffffffffffffffffffffffffffffffffffffffff166116639092919063ffffffff16565b61078f67a39b629ed015cf2460c01b6115b5565b6107a36790015988db0341a660c01b6115b5565b8173ffffffffffffffffffffffffffffffffffffffff167f16cbc685358ca7d4e6b273dcdf2cb5d18c80b950aa2319b519756cd016233a6c846040516107e991906122ff565b60405180910390a26107f96116e9565b505050565b6000806000838152602001908152602001600020600101549050919050565b61083167908411c86dba926660c01b6115b5565b6000801b61083e816115b8565b61085267aae64c8ddc19603160c01b6115b5565b610866674f0ddc36331fbb5a60c01b6115b5565b61087a67aeeeea64780e770d60c01b6115b5565b61088e671c4d72f0284f539860c01b6115b5565b6108a267f4170ffebbb203fe60c01b6115b5565b600073ffffffffffffffffffffffffffffffffffffffff168273ffffffffffffffffffffffffffffffffffffffff1603610911576040517f08c379a00000000000000000000000000000000000000000000000000000000081526004016109089061259b565b60405180910390fd5b6109256716460563a2dcd66d60c01b6115b5565b61093967a2b90e8aa86cd22f60c01b6115b5565b61094d6763ff4fce9e72a15460c01b6115b5565b6109777fd1473398bb66596de5d1ea1fc8e303ff2ac23265adc9144b1b52065dc4f0934b836116f3565b61098b6746f462acbc1aecd060c01b6115b5565b61099f67ae1453a7b73498e060c01b6115b5565b8173ffffffffffffffffffffffffffffffffffffffff167fcda5ead5990c93782bf65fbb77804f836b3957fb4ac7e494e7c37149eb0bfe8c60405160405180910390a25050565b6109ef826107fe565b6109f8816115b8565b610a0283836116f3565b505050565b610a0f6117d3565b73ffffffffffffffffffffffffffffffffffffffff168173ffffffffffffffffffffffffffffffffffffffff1614610a7c576040517f08c379a0000000000000000000000000000000000000000000000000000000008152600401610a739061262d565b60405180910390fd5b610a8682826117db565b5050565b7f000000000000000000000000000000000000000000000000000000000000000081565b610ac2677f104f9776a2839960c01b6115b5565b7f65d7a28e3265b37a6474929f336521b332c1681b933f6cb9f3376673440d862a610aec816115b8565b610b0067b0ad247e949c306760c01b6115b5565b610b14670dcefd88a8f1fe0260c01b6115b5565b610b2867abb205f1a1c08ed860c01b6115b5565b610b3c67a5a45d50418d754b60c01b6115b5565b610b446118bc565b50565b6000600160009054906101000a900460ff16905090565b7fd1473398bb66596de5d1ea1fc8e303ff2ac23265adc9144b1b52065dc4f0934b81565b610b966769331d1d689276ee60c01b6115b5565b7f65d7a28e3265b37a6474929f336521b332c1681b933f6cb9f3376673440d862a610bc0816115b8565b610bd467e4c3c25cd3826b1b60c01b6115b5565b610be8673cdccd76743d68f460c01b6115b5565b610bfc67fe96ffdedb9a284360c01b6115b5565b610c10676ae07a54e796c7ad60c01b6115b5565b610c1861191f565b50565b600080600084815260200190815260200160002060000160008373ffffffffffffffffffffffffffffffffffffffff1673ffffffffffffffffffffffffffffffffffffffff16815260200190815260200160002060009054906101000a900460ff16905092915050565b6000801b81565b6000610ca267b3ecd5528fb92dd360c01b6115b5565b610cb66799dd2c508477650e60c01b6115b5565b610cca6734163faee1d4585760c01b6115b5565b60007f000000000000000000000000000000000000000000000000000000000000000073ffffffffffffffffffffffffffffffffffffffff166370a08231306040518263ffffffff1660e01b8152600401610d259190612356565b602060405180830381865afa158015610d42573d6000803e3d6000fd5b505050506040513d601f19601f82011682018060405250810190610d669190612662565b9050610d7c67c1d0b2492cd2160f60c01b6115b5565b610d9067e214dcde8594847360c01b6115b5565b60045481101580610db15750610db0671b5bcd5738c5a59160c01b611981565b5b8015610dcd5750610dcc6760fdcf3ef1c9952560c01b611988565b5b610dd8576000610de7565b60045481610de6919061268f565b5b91505090565b610e0167c622a23fe2ab3a4860c01b6115b5565b6000801b610e0e816115b8565b610e22679dd0c4e7db01b61960c01b6115b5565b610e3667e94646100217532960c01b6115b5565b610e3e6115cc565b610e52671088084cccf7cd6360c01b6115b5565b610e666767bde77ed30bd1b560c01b6115b5565b610e7a67691950aa760e2d1860c01b6115b5565b610e8e67c3b8e4a0c7b44fc160c01b6115b5565b610ea267be080978f610ce5060c01b6115b5565b60008211610ee5576040517f08c379a0000000000000000000000000000000000000000000000000000000008152600401610edc906123ce565b60405180910390fd5b610ef9672a96eaa8be8ad13760c01b6115b5565b610f0d677be5dd107d0bab5960c01b6115b5565b610f216779aee4f72e827e2560c01b6115b5565b610f6e3330847f000000000000000000000000000000000000000000000000000000000000000073ffffffffffffffffffffffffffffffffffffffff16611993909392919063ffffffff16565b610f826784a522090e3943fe60c01b6115b5565b610f9667297de16d0a9af0f060c01b6115b5565b3373ffffffffffffffffffffffffffffffffffffffff167fba24bd9b798cca64d1031eda1ced9398802343e44e07779bb510d7a21ddddef183604051610fdc91906122ff565b60405180910390a25050565b600360009054906101000a900473ffffffffffffffffffffffffffffffffffffffff1681565b611022671e54ee8ab0c8710560c01b6115b5565b6000801b61102f816115b8565b611043671edeac6273230c7560c01b6115b5565b6110576748e76617b4511b8d60c01b6115b5565b61105f6115cc565b61107367fc85bdeac8381d3760c01b6115b5565b61108767b032735759c6171f60c01b6115b5565b61108f611616565b6110a36744ce1fe73e7da21a60c01b6115b5565b6110b7679f6e212e0c928c1060c01b6115b5565b6110cb67122f7eaac202cb8460c01b6115b5565b6110df6791c842695cd947ac60c01b6115b5565b6110f3673e6355ca62e231b260c01b6115b5565b60008211611136576040517f08c379a000000000000000000000000000000000000000000000000000000000815260040161112d906123ce565b60405180910390fd5b61114a6775a3af363f42fa3260c01b6115b5565b61115e678ac1c106702730b660c01b6115b5565b61117267f1accebd43ab6e8160c01b6115b5565b600061117c610c8c565b9050611192675a3d5ba6d8eec63060c01b6115b5565b6111a667697c89b233baf11a60c01b6115b5565b6111ba6791ceb995aab799fa60c01b6115b5565b828110156111fd576040517f08c379a00000000000000000000000000000000000000000000000000000000081526004016111f49061270f565b60405180910390fd5b61121167989519c5ba9da74560c01b6115b5565b611225671a60eb68db7c957d60c01b6115b5565b8260046000828254611237919061251b565b9250508190555061125267c211a60147fbed9660c01b6115b5565b61126667213df8693528eb9260c01b6115b5565b6112b133847f000000000000000000000000000000000000000000000000000000000000000073ffffffffffffffffffffffffffffffffffffffff166116639092919063ffffffff16565b6112c5672be8546cedfcbfcb60c01b6115b5565b6112d96707b111111477a18b60c01b6115b5565b3373ffffffffffffffffffffffffffffffffffffffff167f1b5775af7e7537be20684ccf94b9c6f4b180dabad653f5b57a234a9c6a3db40b8460405161131f91906122ff565b60405180910390a2506113306116e9565b5050565b61133d826107fe565b611346816115b8565b61135083836117db565b505050565b60045481565b7f65d7a28e3265b37a6474929f336521b332c1681b933f6cb9f3376673440d862a81565b611393672caf0867065c660d60c01b6115b5565b6000801b6113a0816115b8565b6113b46787546afe67af4c7160c01b6115b5565b6113c867c187c2420fb2fde760c01b6115b5565b6113dc6772afdcd24fbf907060c01b6115b5565b6113f06767336cd7e02fce1060c01b6115b5565b611404679335455ec7fced3860c01b6115b5565b600073ffffffffffffffffffffffffffffffffffffffff168273ffffffffffffffffffffffffffffffffffffffff1603611473576040517f08c379a000000000000000000000000000000000000000000000000000000000815260040161146a9061277b565b60405180910390fd5b611487670b23879451674e0860c01b6115b5565b61149b67082df7126f24c3a160c01b6115b5565b81600360006101000a81548173ffffffffffffffffffffffffffffffffffffffff021916908373ffffffffffffffffffffffffffffffffffffffff1602179055506114f0674c5558bb3d6ab52e60c01b6115b5565b61150467bbd50a909bb098da60c01b6115b5565b8173ffffffffffffffffffffffffffffffffffffffff167fbdf37c276f641820b141429d245add2552b4118c0866e5a78638e3de5ef18d9d60405160405180910390a25050565b60007f01ffc9a7000000000000000000000000000000000000000000000000000000007bffffffffffffffffffffffffffffffffffffffffffffffffffffffff1916827bffffffffffffffffffffffffffffffffffffffffffffffffffffffff1916149050919050565b50565b6115c9816115c46117d3565b611a1c565b50565b6115d4610b47565b15611614576040517f08c379a000000000000000000000000000000000000000000000000000000000815260040161160b906127e7565b60405180910390fd5b565b600280540361165a576040517f08c379a000000000000000000000000000000000000000000000000000000000815260040161165190612853565b60405180910390fd5b60028081905550565b6116e48363a9059cbb60e01b8484604051602401611682929190612873565b604051602081830303815290604052907bffffffffffffffffffffffffffffffffffffffffffffffffffffffff19166020820180517bffffffffffffffffffffffffffffffffffffffffffffffffffffffff8381831617835250505050611aa1565b505050565b6001600281905550565b6116fd8282610c1b565b6117cf57600160008084815260200190815260200160002060000160008373ffffffffffffffffffffffffffffffffffffffff1673ffffffffffffffffffffffffffffffffffffffff16815260200190815260200160002060006101000a81548160ff0219169083151502179055506117746117d3565b73ffffffffffffffffffffffffffffffffffffffff168173ffffffffffffffffffffffffffffffffffffffff16837f2f8788117e7eff1d82e926ec794901d17c78024a50270940304540a733656f0d60405160405180910390a45b5050565b600033905090565b6117e58282610c1b565b156118b857600080600084815260200190815260200160002060000160008373ffffffffffffffffffffffffffffffffffffffff1673ffffffffffffffffffffffffffffffffffffffff16815260200190815260200160002060006101000a81548160ff02191690831515021790555061185d6117d3565b73ffffffffffffffffffffffffffffffffffffffff168173ffffffffffffffffffffffffffffffffffffffff16837ff6391f5c32d9c69d2a47ea670b442974b53935d1edc7fd64eb21e047a839171b60405160405180910390a45b5050565b6118c4611b69565b6000600160006101000a81548160ff0219169083151502179055507f5db9ee0a495bf2e6ff9c91a7834c1ba4fdd244a5e8aa4e537bd38aeae4b073aa6119086117d3565b6040516119159190612356565b60405180910390a1565b6119276115cc565b60018060006101000a81548160ff0219169083151502179055507f62e78cea01bee320cd4e420270b5ea74000d11b0c9f74754ebdbfc544b05a25861196a6117d3565b6040516119779190612356565b60405180910390a1565b6000919050565b600060019050919050565b611a16846323b872dd60e01b8585856040516024016119b49392919061289c565b604051602081830303815290604052907bffffffffffffffffffffffffffffffffffffffffffffffffffffffff19166020820180517bffffffffffffffffffffffffffffffffffffffffffffffffffffffff8381831617835250505050611aa1565b50505050565b611a268282610c1b565b611a9d57611a3381611bb2565b611a418360001c6020611bdf565b604051602001611a529291906129dc565b6040516020818303038152906040526040517f08c379a0000000000000000000000000000000000000000000000000000000008152600401611a949190612a60565b60405180910390fd5b5050565b6000611b03826040518060400160405280602081526020017f5361666545524332303a206c6f772d6c6576656c2063616c6c206661696c65648152508573ffffffffffffffffffffffffffffffffffffffff16611e1b9092919063ffffffff16565b9050600081511480611b25575080806020019051810190611b249190612aae565b5b611b64576040517f08c379a0000000000000000000000000000000000000000000000000000000008152600401611b5b90612b4d565b60405180910390fd5b505050565b611b71610b47565b611bb0576040517f08c379a0000000000000000000000000000000000000000000000000000000008152600401611ba790612bb9565b60405180910390fd5b565b6060611bd88273ffffffffffffffffffffffffffffffffffffffff16601460ff16611bdf565b9050919050565b606060006002836002611bf29190612bd9565b611bfc919061251b565b67ffffffffffffffff811115611c1557611c14612c1b565b5b6040519080825280601f01601f191660200182016040528015611c475781602001600182028036833780820191505090505b5090507f300000000000000000000000000000000000000000000000000000000000000081600081518110611c7f57611c7e612c4a565b5b60200101907effffffffffffffffffffffffffffffffffffffffffffffffffffffffffffff1916908160001a9053507f780000000000000000000000000000000000000000000000000000000000000081600181518110611ce357611ce2612c4a565b5b60200101907effffffffffffffffffffffffffffffffffffffffffffffffffffffffffffff1916908160001a90535060006001846002611d239190612bd9565b611d2d919061251b565b90505b6001811115611dcd577f3031323334353637383961626364656600000000000000000000000000000000600f861660108110611d6f57611d6e612c4a565b5b1a60f81b828281518110611d8657611d85612c4a565b5b60200101907effffffffffffffffffffffffffffffffffffffffffffffffffffffffffffff1916908160001a905350600485901c945080611dc690612c79565b9050611d30565b5060008414611e11576040517f08c379a0000000000000000000000000000000000000000000000000000000008152600401611e0890612cee565b60405180910390fd5b8091505092915050565b6060611e2a8484600085611e33565b90509392505050565b606082471015611e78576040517f08c379a0000000000000000000000000000000000000000000000000000000008152600401611e6f90612d80565b60405180910390fd5b6000808673ffffffffffffffffffffffffffffffffffffffff168587604051611ea19190612de7565b60006040518083038185875af1925050503d8060008114611ede576040519150601f19603f3d011682016040523d82523d6000602084013e611ee3565b606091505b5091509150611ef487838387611f00565b92505050949350505050565b60608315611f62576000835103611f5a57611f1a85611f75565b611f59576040517f08c379a0000000000000000000000000000000000000000000000000000000008152600401611f5090612e4a565b60405180910390fd5b5b829050611f6d565b611f6c8383611f98565b5b949350505050565b6000808273ffffffffffffffffffffffffffffffffffffffff163b119050919050565b600082511115611fab5781518083602001fd5b806040517f08c379a0000000000000000000000000000000000000000000000000000000008152600401611fdf9190612a60565b60405180910390fd5b600080fd5b60007fffffffff0000000000000000000000000000000000000000000000000000000082169050919050565b61202281611fed565b811461202d57600080fd5b50565b60008135905061203f81612019565b92915050565b60006020828403121561205b5761205a611fe8565b5b600061206984828501612030565b91505092915050565b60008115159050919050565b61208781612072565b82525050565b60006020820190506120a2600083018461207e565b92915050565b6000819050919050565b6120bb816120a8565b81146120c657600080fd5b50565b6000813590506120d8816120b2565b92915050565b600073ffffffffffffffffffffffffffffffffffffffff82169050919050565b6000612109826120de565b9050919050565b612119816120fe565b811461212457600080fd5b50565b60008135905061213681612110565b92915050565b6000806040838503121561215357612152611fe8565b5b6000612161858286016120c9565b925050602061217285828601612127565b9150509250929050565b6000819050919050565b61218f8161217c565b811461219a57600080fd5b50565b6000813590506121ac81612186565b92915050565b6000602082840312156121c8576121c7611fe8565b5b60006121d68482850161219d565b91505092915050565b6121e88161217c565b82525050565b600060208201905061220360008301846121df565b92915050565b60006020828403121561221f5761221e611fe8565b5b600061222d84828501612127565b91505092915050565b6000806040838503121561224d5761224c611fe8565b5b600061225b8582860161219d565b925050602061226c85828601612127565b9150509250929050565b6000819050919050565b600061229b612296612291846120de565b612276565b6120de565b9050919050565b60006122ad82612280565b9050919050565b60006122bf826122a2565b9050919050565b6122cf816122b4565b82525050565b60006020820190506122ea60008301846122c6565b92915050565b6122f9816120a8565b82525050565b600060208201905061231460008301846122f0565b92915050565b6000602082840312156123305761232f611fe8565b5b600061233e848285016120c9565b91505092915050565b612350816120fe565b82525050565b600060208201905061236b6000830184612347565b92915050565b600082825260208201905092915050565b7f416d6f756e74206d757374206265203e20300000000000000000000000000000600082015250565b60006123b8601283612371565b91506123c382612382565b602082019050919050565b600060208201905081810360008301526123e7816123ab565b9050919050565b7f496e76616c696420726563697069656e74000000000000000000000000000000600082015250565b6000612424601183612371565b915061242f826123ee565b602082019050919050565b6000602082019050818103600083015261245381612417565b9050919050565b7f496e73756666696369656e74207661756c742062616c616e636520666f72206960008201527f6e74657265737400000000000000000000000000000000000000000000000000602082015250565b60006124b6602783612371565b91506124c18261245a565b604082019050919050565b600060208201905081810360008301526124e5816124a9565b9050919050565b7f4e487b7100000000000000000000000000000000000000000000000000000000600052601160045260246000fd5b6000612526826120a8565b9150612531836120a8565b9250828201905080821115612549576125486124ec565b5b92915050565b7f496e76616c6964206d616e616765720000000000000000000000000000000000600082015250565b6000612585600f83612371565b91506125908261254f565b602082019050919050565b600060208201905081810360008301526125b481612578565b9050919050565b7f416363657373436f6e74726f6c3a2063616e206f6e6c792072656e6f756e636560008201527f20726f6c657320666f722073656c660000000000000000000000000000000000602082015250565b6000612617602f83612371565b9150612622826125bb565b604082019050919050565b600060208201905081810360008301526126468161260a565b9050919050565b60008151905061265c816120b2565b92915050565b60006020828403121561267857612677611fe8565b5b60006126868482850161264d565b91505092915050565b600061269a826120a8565b91506126a5836120a8565b92508282039050818111156126bd576126bc6124ec565b5b92915050565b7f496e73756666696369656e7420617661696c61626c652062616c616e63650000600082015250565b60006126f9601e83612371565b9150612704826126c3565b602082019050919050565b60006020820190508181036000830152612728816126ec565b9050919050565b7f496e76616c696420666565207265636569766572000000000000000000000000600082015250565b6000612765601483612371565b91506127708261272f565b602082019050919050565b6000602082019050818103600083015261279481612758565b9050919050565b7f5061757361626c653a2070617573656400000000000000000000000000000000600082015250565b60006127d1601083612371565b91506127dc8261279b565b602082019050919050565b60006020820190508181036000830152612800816127c4565b9050919050565b7f5265656e7472616e637947756172643a207265656e7472616e742063616c6c00600082015250565b600061283d601f83612371565b915061284882612807565b602082019050919050565b6000602082019050818103600083015261286c81612830565b9050919050565b60006040820190506128886000830185612347565b61289560208301846122f0565b9392505050565b60006060820190506128b16000830186612347565b6128be6020830185612347565b6128cb60408301846122f0565b949350505050565b600081905092915050565b7f416363657373436f6e74726f6c3a206163636f756e7420000000000000000000600082015250565b60006129146017836128d3565b915061291f826128de565b601782019050919050565b600081519050919050565b60005b83811015612953578082015181840152602081019050612938565b60008484015250505050565b600061296a8261292a565b61297481856128d3565b9350612984818560208601612935565b80840191505092915050565b7f206973206d697373696e6720726f6c6520000000000000000000000000000000600082015250565b60006129c66011836128d3565b91506129d182612990565b601182019050919050565b60006129e782612907565b91506129f3828561295f565b91506129fe826129b9565b9150612a0a828461295f565b91508190509392505050565b6000601f19601f8301169050919050565b6000612a328261292a565b612a3c8185612371565b9350612a4c818560208601612935565b612a5581612a16565b840191505092915050565b60006020820190508181036000830152612a7a8184612a27565b905092915050565b612a8b81612072565b8114612a9657600080fd5b50565b600081519050612aa881612a82565b92915050565b600060208284031215612ac457612ac3611fe8565b5b6000612ad284828501612a99565b91505092915050565b7f5361666545524332303a204552433230206f7065726174696f6e20646964206e60008201527f6f74207375636365656400000000000000000000000000000000000000000000602082015250565b6000612b37602a83612371565b9150612b4282612adb565b604082019050919050565b60006020820190508181036000830152612b6681612b2a565b9050919050565b7f5061757361626c653a206e6f7420706175736564000000000000000000000000600082015250565b6000612ba3601483612371565b9150612bae82612b6d565b602082019050919050565b60006020820190508181036000830152612bd281612b96565b9050919050565b6000612be4826120a8565b9150612bef836120a8565b9250828202612bfd816120a8565b91508282048414831517612c1457612c136124ec565b5b5092915050565b7f4e487b7100000000000000000000000000000000000000000000000000000000600052604160045260246000fd5b7f4e487b7100000000000000000000000000000000000000000000000000000000600052603260045260246000fd5b6000612c84826120a8565b915060008203612c9757612c966124ec565b5b600182039050919050565b7f537472696e67733a20686578206c656e67746820696e73756666696369656e74600082015250565b6000612cd8602083612371565b9150612ce382612ca2565b602082019050919050565b60006020820190508181036000830152612d0781612ccb565b9050919050565b7f416464726573733a20696e73756666696369656e742062616c616e636520666f60008201527f722063616c6c0000000000000000000000000000000000000000000000000000602082015250565b6000612d6a602683612371565b9150612d7582612d0e565b604082019050919050565b60006020820190508181036000830152612d9981612d5d565b9050919050565b600081519050919050565b600081905092915050565b6000612dc182612da0565b612dcb8185612dab565b9350612ddb818560208601612935565b80840191505092915050565b6000612df38284612db6565b915081905092915050565b7f416464726573733a2063616c6c20746f206e6f6e2d636f6e7472616374000000600082015250565b6000612e34601d83612371565b9150612e3f82612dfe565b602082019050919050565b60006020820190508181036000830152612e6381612e27565b905091905056fea2646970667358221220111c6a66f89672424828827a353d0ed7ab0f2a68e908ed1ba063c818300edb9c64736f6c63430008140033",
  "linkReferences": {},
  "deployedLinkReferences": {}
}